{
  "_format": "hh3-artifact-1",
  "contractName": "MockERC20",
  "sourceName": "contracts/MockERC20.sol",
  "abi": [
    {
      "inputs": [
        {
          "internalType": "string",
          "name": "_name",
          "type": "string"
        },
        {
          "internalType": "string",
          "name": "_symbol",
          "type": "string"
        },
        {
          "internalType": "uint8",
          "name": "_decimals",
          "type": "uint8"
        }
      ],
      "stateMutability": "nonpayable",
      "type": "constructor"
    },
    {
      "anonymous": false,
      "inputs": [
        {
          "indexed": true,
          "internalType": "address",
          "name": "owner",
          "type": "address"
        },
        {
          "indexed": true,
          "internalType": "address",
          "name": "spender",
          "type": "address"
        },
        {
          "indexed": false,
          "internalType": "uint256",
          "name": "value",
          "type": "uint256"
        }
      ],
      "name": "Approval",
      "type": "event"
    },
    {
      "anonymous": false,
      "inputs": [
        {
          "indexed": true,
          "internalType": "address",
          "name": "from",
          "type": "address"
        },
        {
          "indexed": true,
          "internalType": "address",
          "name": "to",
          "type": "address"
        },
        {
          "indexed": false,
          "internalType": "uint256",
          "name": "value",
          "type": "uint256"
        }
      ],
      "name": "Transfer",
      "type": "event"
    },
    {
      "inputs": [
        {
          "internalType": "address",
          "name": "",
          "type": "address"
        },
        {
          "internalType": "address",
          "name": "",
          "type": "address"
        }
      ],
      "name": "allowance",
      "outputs": [
        {
          "internalType": "uint256",
          "name": "",
          "type": "uint256"
        }
      ],
      "stateMutability": "view",
      "type": "function"
    },
    {
      "inputs": [
        {
          "internalType": "address",
          "name": "spender",
          "type": "address"
        },
        {
          "internalType": "uint256",
          "name": "amount",
          "type": "uint256"
        }
      ],
      "name": "approve",
      "outputs": [
        {
          "internalType": "bool",
          "name": "",
          "type": "bool"
        }
      ],
      "stateMutability": "nonpayable",
      "type": "function"
    },
    {
      "inputs": [
        {
          "internalType": "address",
          "name": "",
          "type": "address"
        }
      ],
      "name": "balanceOf",
      "outputs": [
        {
          "internalType": "uint256",
          "name": "",
          "type": "uint256"
        }
      ],
      "stateMutability": "view",
      "type": "function"
    },
    {
      "inputs": [],
      "name": "decimals",
      "outputs": [
        {
          "internalType": "uint8",
          "name": "",
          "type": "uint8"
        }
      ],
      "stateMutability": "view",
      "type": "function"
    },
    {
      "inputs": [],
      "name": "faucet",
      "outputs": [],
      "stateMutability": "nonpayable",
      "type": "function"
    },
    {
      "inputs": [],
      "name": "faucetAmount",
      "outputs": [
        {
          "internalType": "uint256",
          "name": "",
          "type": "uint256"
        }
      ],
      "stateMutability": "view",
      "type": "function"
    },
    {
      "inputs": [
        {
          "internalType": "address",
          "name": "to",
          "type": "address"
        },
        {
          "internalType": "uint256",
          "name": "amount",
          "type": "uint256"
        }
      ],
      "name": "mint",
      "outputs": [],
      "stateMutability": "nonpayable",
      "type": "function"
    },
    {
      "inputs": [],
      "name": "name",
      "outputs": [
        {
          "internalType": "string",
          "name": "",
          "type": "string"
        }
      ],
      "stateMutability": "view",
      "type": "function"
    },
    {
      "inputs": [],
      "name": "symbol",
      "outputs": [
        {
          "internalType": "string",
          "name": "",
          "type": "string"
        }
      ],
      "stateMutability": "view",
      "type": "function"
    },
    {
      "inputs": [],
      "name": "totalSupply",
      "outputs": [
        {
          "internalType": "uint256",
          "name": "",
          "type": "uint256"
        }
      ],
      "stateMutability": "view",
      "type": "function"
    },
    {
      "inputs": [
        {
          "internalType": "address",
          "name": "to",
          "type": "address"
        },
        {
          "internalType": "uint256",
          "name": "amount",
          "type": "uint256"
        }
      ],
      "name": "transfer",
      "outputs": [
        {
          "internalType": "bool",
          "name": "",
          "type": "bool"
        }
      ],
      "stateMutability": "nonpayable",
      "type": "function"
    },
    {
      "inputs": [
        {
          "internalType": "address",
          "name": "from",
          "type": "address"
        },
        {
          "internalType": "address",
          "name": "to",
          "type": "address"
        },
        {
          "internalType": "uint256",
          "name": "amount",
          "type": "uint256"
        }
      ],
      "name": "transferFrom",
      "outputs": [
        {
          "internalType": "bool",
          "name": "",
          "type": "bool"
        }
      ],
      "stateMutability": "nonpayable",
      "type": "function"
    }
  ],
  "bytecode": "0x60a06040523461036357610af88038038061001981610367565b9283398101906060818303126103635780516001600160401b038111610363578261004591830161038c565b60208201519092906001600160401b0381116103635760409161006991840161038c565b91015160ff8116908181036103635783516001600160401b038111610277575f54600181811c91168015610359575b602082101461025957601f81116102f7575b50602094601f8211600114610296579481929394955f9261028b575b50508160011b915f199060031b1c1916175f555b82516001600160401b03811161027757600154600181811c9116801561026d575b602082101461025957601f81116101f6575b506020601f821160011461019357819293945f92610188575b50508160011b915f199060031b1c1916176001555b608052604d811161017457600a0a8061271002906127108204036101745760035560405161071a90816103de8239608051816102f10152f35b634e487b7160e01b5f52601160045260245ffd5b015190505f80610126565b601f1982169060015f52805f20915f5b8181106101de575095836001959697106101c6575b505050811b0160015561013b565b01515f1960f88460031b161c191690555f80806101b8565b9192602060018192868b0151815501940192016101a3565b60015f527fb10e2d527612073b26eecdfd717e6a320cf44b4afac2b0732d9fcbe2b7fa0cf6601f830160051c8101916020841061024f575b601f0160051c01905b818110610244575061010d565b5f8155600101610237565b909150819061022e565b634e487b7160e01b5f52602260045260245ffd5b90607f16906100fb565b634e487b7160e01b5f52604160045260245ffd5b015190505f806100c6565b601f198216955f8052805f20915f5b8881106102df575083600195969798106102c7575b505050811b015f556100da565b01515f1960f88460031b161c191690555f80806102ba565b919260206001819286850151815501940192016102a5565b5f80527f290decd9548b62a8d60345a988386fc84ba6bc95484008f6362f93160ef3e563601f830160051c8101916020841061034f575b601f0160051c01905b81811061034457506100aa565b5f8155600101610337565b909150819061032e565b90607f1690610098565b5f80fd5b6040519190601f01601f191682016001600160401b0381118382101761027757604052565b81601f82011215610363578051906001600160401b038211610277576103bb601f8301601f1916602001610367565b928284526020838301011161036357815f9260208093018386015e830101529056fe60806040526004361015610011575f80fd5b5f3560e01c806306fdde031461049c578063095ea7b31461042357806318160ddd1461040657806323b872dd14610315578063313ce567146102d857806340c10f19146102b357806370a082311461027b57806395d89b411461015d5780639c28143014610140578063a9059cbb1461010f578063dd62ed3e146100bf5763de5f72fd1461009d575f80fd5b346100bb575f3660031901126100bb576100b960035433610691565b005b5f80fd5b346100bb5760403660031901126100bb576100d8610598565b6100e06105ae565b6001600160a01b039182165f908152600560209081526040808320949093168252928352819020549051908152f35b346100bb5760403660031901126100bb5761013561012b610598565b60243590336105d1565b602060405160018152f35b346100bb575f3660031901126100bb576020600354604051908152f35b346100bb575f3660031901126100bb576040515f6001548060011c90600181168015610271575b60208310811461025d5782855290811561024157506001146101eb575b50819003601f01601f191681019067ffffffffffffffff8211818310176101d757604082905281906101d3908261056e565b0390f35b634e487b7160e01b5f52604160045260245ffd5b60015f9081529091507fb10e2d527612073b26eecdfd717e6a320cf44b4afac2b0732d9fcbe2b7fa0cf65b82821061022b575060209150820101826101a1565b6001816020925483858801015201910190610216565b90506020925060ff191682840152151560051b820101826101a1565b634e487b7160e01b5f52602260045260245ffd5b91607f1691610184565b346100bb5760203660031901126100bb576001600160a01b0361029c610598565b165f526004602052602060405f2054604051908152f35b346100bb5760403660031901126100bb576100b96102cf610598565b60243590610691565b346100bb575f3660031901126100bb57602060405160ff7f0000000000000000000000000000000000000000000000000000000000000000168152f35b346100bb5760603660031901126100bb5761032e610598565b6103366105ae565b6001600160a01b0382165f8181526005602090815260408083203384529091529020549092604435929160018101610374575b5061013593506105d1565b8381106103c1578381039081116103ad57610135945f52600560205260405f2060018060a01b0333165f5260205260405f205584610369565b634e487b7160e01b5f52601160045260245ffd5b60405162461bcd60e51b815260206004820152601d60248201527f45524332303a20696e73756666696369656e7420616c6c6f77616e63650000006044820152606490fd5b346100bb575f3660031901126100bb576020600254604051908152f35b346100bb5760403660031901126100bb5761043c610598565b335f8181526005602090815260408083206001600160a01b03909516808452948252918290206024359081905591519182527f8c5be1e5ebec7d5bd14f71427d1e84f3dd0314c0f7b2291e5b200ac8c7c3b92591a3602060405160018152f35b346100bb575f3660031901126100bb576040515f5f548060011c90600181168015610564575b60208310811461025d5782855290811561024157506001146105105750819003601f01601f191681019067ffffffffffffffff8211818310176101d757604082905281906101d3908261056e565b5f8080529091507f290decd9548b62a8d60345a988386fc84ba6bc95484008f6362f93160ef3e5635b82821061054e575060209150820101826101a1565b6001816020925483858801015201910190610539565b91607f16916104c2565b602060409281835280519182918282860152018484015e5f828201840152601f01601f1916010190565b600435906001600160a01b03821682036100bb57565b602435906001600160a01b03821682036100bb57565b919082018092116103ad57565b60018060a01b031690815f5260046020528260405f20541061064c5760207fddf252ad1be2c89b69c2b068fc378daa952ba7f163c4a11628f55a4df523b3ef91835f526004825260405f2085815403905560018060a01b031693845f526004825260405f206106418282546105c4565b9055604051908152a3565b60405162461bcd60e51b815260206004820152601b60248201527f45524332303a20696e73756666696369656e742062616c616e636500000000006044820152606490fd5b7fddf252ad1be2c89b69c2b068fc378daa952ba7f163c4a11628f55a4df523b3ef60205f926106c2856002546105c4565b60025560018060a01b03169384845260048252604084206106418282546105c456fea264697066735822122038f951be69eed1deb3be9bf009065b94f88797c43e4b57097735ebb2099ae62464736f6c634300081c0033",
  "linkReferences": {},
  "deployedLinkReferences": {},
  "immutableReferences": {
    "2002": [
      {
        "length": 32,
        "start": 753
      }
    ]
  },
  "inputSourceName": "project/contracts/MockERC20.sol",
  "buildInfoId": "solc-0_8_28-35d3c98d8d178c4ae08d8c726cd1701aad32dda4"
}