{
  "_format": "hh3-artifact-1",
  "contractName": "RWAPool",
  "sourceName": "contracts/RWAPool.sol",
  "abi": [
    {
      "inputs": [],
      "stateMutability": "nonpayable",
      "type": "constructor"
    },
    {
      "inputs": [],
      "name": "InvalidInitialization",
      "type": "error"
    },
    {
      "inputs": [],
      "name": "NotInitializing",
      "type": "error"
    },
    {
      "inputs": [
        {
          "internalType": "address",
          "name": "owner",
          "type": "address"
        }
      ],
      "name": "OwnableInvalidOwner",
      "type": "error"
    },
    {
      "inputs": [
        {
          "internalType": "address",
          "name": "account",
          "type": "address"
        }
      ],
      "name": "OwnableUnauthorizedAccount",
      "type": "error"
    },
    {
      "anonymous": false,
      "inputs": [
        {
          "indexed": true,
          "internalType": "address",
          "name": "reserve",
          "type": "address"
        },
        {
          "indexed": false,
          "internalType": "address",
          "name": "user",
          "type": "address"
        },
        {
          "indexed": true,
          "internalType": "address",
          "name": "onBehalfOf",
          "type": "address"
        },
        {
          "indexed": false,
          "internalType": "uint256",
          "name": "amount",
          "type": "uint256"
        },
        {
          "indexed": false,
          "internalType": "uint256",
          "name": "interestRateMode",
          "type": "uint256"
        },
        {
          "indexed": false,
          "internalType": "uint256",
          "name": "borrowRate",
          "type": "uint256"
        },
        {
          "indexed": false,
          "internalType": "uint16",
          "name": "referralCode",
          "type": "uint16"
        }
      ],
      "name": "Borrow",
      "type": "event"
    },
    {
      "anonymous": false,
      "inputs": [
        {
          "indexed": false,
          "internalType": "uint64",
          "name": "version",
          "type": "uint64"
        }
      ],
      "name": "Initialized",
      "type": "event"
    },
    {
      "anonymous": false,
      "inputs": [
        {
          "indexed": true,
          "internalType": "address",
          "name": "collateralAsset",
          "type": "address"
        },
        {
          "indexed": true,
          "internalType": "address",
          "name": "debtAsset",
          "type": "address"
        },
        {
          "indexed": true,
          "internalType": "address",
          "name": "user",
          "type": "address"
        },
        {
          "indexed": false,
          "internalType": "uint256",
          "name": "debtToCover",
          "type": "uint256"
        },
        {
          "indexed": false,
          "internalType": "uint256",
          "name": "liquidatedCollateralAmount",
          "type": "uint256"
        },
        {
          "indexed": false,
          "internalType": "address",
          "name": "liquidator",
          "type": "address"
        },
        {
          "indexed": false,
          "internalType": "bool",
          "name": "receiveAToken",
          "type": "bool"
        }
      ],
      "name": "LiquidationCall",
      "type": "event"
    },
    {
      "anonymous": false,
      "inputs": [
        {
          "indexed": true,
          "internalType": "address",
          "name": "previousOwner",
          "type": "address"
        },
        {
          "indexed": true,
          "internalType": "address",
          "name": "newOwner",
          "type": "address"
        }
      ],
      "name": "OwnershipTransferred",
      "type": "event"
    },
    {
      "anonymous": false,
      "inputs": [
        {
          "indexed": true,
          "internalType": "address",
          "name": "asset",
          "type": "address"
        },
        {
          "indexed": false,
          "internalType": "uint256",
          "name": "priceUsd",
          "type": "uint256"
        }
      ],
      "name": "PriceUpdated",
      "type": "event"
    },
    {
      "anonymous": false,
      "inputs": [
        {
          "indexed": true,
          "internalType": "address",
          "name": "reserve",
          "type": "address"
        },
        {
          "indexed": true,
          "internalType": "address",
          "name": "user",
          "type": "address"
        },
        {
          "indexed": true,
          "internalType": "address",
          "name": "repayer",
          "type": "address"
        },
        {
          "indexed": false,
          "internalType": "uint256",
          "name": "amount",
          "type": "uint256"
        },
        {
          "indexed": false,
          "internalType": "bool",
          "name": "useATokens",
          "type": "bool"
        }
      ],
      "name": "Repay",
      "type": "event"
    },
    {
      "anonymous": false,
      "inputs": [
        {
          "indexed": true,
          "internalType": "address",
          "name": "asset",
          "type": "address"
        }
      ],
      "name": "ReserveInitialized",
      "type": "event"
    },
    {
      "anonymous": false,
      "inputs": [
        {
          "indexed": true,
          "internalType": "address",
          "name": "reserve",
          "type": "address"
        },
        {
          "indexed": true,
          "internalType": "address",
          "name": "user",
          "type": "address"
        }
      ],
      "name": "ReserveUsedAsCollateralDisabled",
      "type": "event"
    },
    {
      "anonymous": false,
      "inputs": [
        {
          "indexed": true,
          "internalType": "address",
          "name": "reserve",
          "type": "address"
        },
        {
          "indexed": true,
          "internalType": "address",
          "name": "user",
          "type": "address"
        }
      ],
      "name": "ReserveUsedAsCollateralEnabled",
      "type": "event"
    },
    {
      "anonymous": false,
      "inputs": [
        {
          "indexed": true,
          "internalType": "address",
          "name": "reserve",
          "type": "address"
        },
        {
          "indexed": false,
          "internalType": "address",
          "name": "user",
          "type": "address"
        },
        {
          "indexed": true,
          "internalType": "address",
          "name": "onBehalfOf",
          "type": "address"
        },
        {
          "indexed": false,
          "internalType": "uint256",
          "name": "amount",
          "type": "uint256"
        },
        {
          "indexed": false,
          "internalType": "uint16",
          "name": "referralCode",
          "type": "uint16"
        }
      ],
      "name": "Supply",
      "type": "event"
    },
    {
      "anonymous": false,
      "inputs": [
        {
          "indexed": true,
          "internalType": "address",
          "name": "reserve",
          "type": "address"
        },
        {
          "indexed": true,
          "internalType": "address",
          "name": "user",
          "type": "address"
        },
        {
          "indexed": true,
          "internalType": "address",
          "name": "to",
          "type": "address"
        },
        {
          "indexed": false,
          "internalType": "uint256",
          "name": "amount",
          "type": "uint256"
        }
      ],
      "name": "Withdraw",
      "type": "event"
    },
    {
      "inputs": [],
      "name": "BASE_CURRENCY_DECIMALS",
      "outputs": [
        {
          "internalType": "uint256",
          "name": "",
          "type": "uint256"
        }
      ],
      "stateMutability": "view",
      "type": "function"
    },
    {
      "inputs": [],
      "name": "BPS",
      "outputs": [
        {
          "internalType": "uint256",
          "name": "",
          "type": "uint256"
        }
      ],
      "stateMutability": "view",
      "type": "function"
    },
    {
      "inputs": [],
      "name": "CLOSE_FACTOR_BPS",
      "outputs": [
        {
          "internalType": "uint256",
          "name": "",
          "type": "uint256"
        }
      ],
      "stateMutability": "view",
      "type": "function"
    },
    {
      "inputs": [],
      "name": "FULL_LIQUIDATION_HF_THRESHOLD",
      "outputs": [
        {
          "internalType": "uint256",
          "name": "",
          "type": "uint256"
        }
      ],
      "stateMutability": "view",
      "type": "function"
    },
    {
      "inputs": [],
      "name": "HEALTH_FACTOR_DECIMALS",
      "outputs": [
        {
          "internalType": "uint256",
          "name": "",
          "type": "uint256"
        }
      ],
      "stateMutability": "view",
      "type": "function"
    },
    {
      "inputs": [],
      "name": "SECONDS_PER_YEAR",
      "outputs": [
        {
          "internalType": "uint256",
          "name": "",
          "type": "uint256"
        }
      ],
      "stateMutability": "view",
      "type": "function"
    },
    {
      "inputs": [
        {
          "internalType": "address",
          "name": "asset",
          "type": "address"
        },
        {
          "internalType": "uint256",
          "name": "amount",
          "type": "uint256"
        },
        {
          "internalType": "uint256",
          "name": "interestRateMode",
          "type": "uint256"
        },
        {
          "internalType": "uint16",
          "name": "referralCode",
          "type": "uint16"
        },
        {
          "internalType": "address",
          "name": "onBehalfOf",
          "type": "address"
        }
      ],
      "name": "borrow",
      "outputs": [],
      "stateMutability": "nonpayable",
      "type": "function"
    },
    {
      "inputs": [
        {
          "internalType": "address",
          "name": "",
          "type": "address"
        },
        {
          "internalType": "address",
          "name": "",
          "type": "address"
        }
      ],
      "name": "collateralDisabled",
      "outputs": [
        {
          "internalType": "bool",
          "name": "",
          "type": "bool"
        }
      ],
      "stateMutability": "view",
      "type": "function"
    },
    {
      "inputs": [
        {
          "internalType": "address",
          "name": "",
          "type": "address"
        },
        {
          "internalType": "address",
          "name": "",
          "type": "address"
        }
      ],
      "name": "debtPrincipal",
      "outputs": [
        {
          "internalType": "uint256",
          "name": "",
          "type": "uint256"
        }
      ],
      "stateMutability": "view",
      "type": "function"
    },
    {
      "inputs": [
        {
          "internalType": "address",
          "name": "",
          "type": "address"
        },
        {
          "internalType": "address",
          "name": "",
          "type": "address"
        }
      ],
      "name": "debtTimestamp",
      "outputs": [
        {
          "internalType": "uint256",
          "name": "",
          "type": "uint256"
        }
      ],
      "stateMutability": "view",
      "type": "function"
    },
    {
      "inputs": [],
      "name": "getAllReservesData",
      "outputs": [
        {
          "components": [
            {
              "internalType": "address",
              "name": "asset",
              "type": "address"
            },
            {
              "internalType": "string",
              "name": "name",
              "type": "string"
            },
            {
              "internalType": "string",
              "name": "symbol",
              "type": "string"
            },
            {
              "internalType": "uint8",
              "name": "decimals",
              "type": "uint8"
            },
            {
              "internalType": "bool",
              "name": "borrowingEnabled",
              "type": "bool"
            },
            {
              "internalType": "bool",
              "name": "collateralEnabled",
              "type": "bool"
            },
            {
              "internalType": "uint16",
              "name": "ltv",
              "type": "uint16"
            },
            {
              "internalType": "uint16",
              "name": "liquidationThreshold",
              "type": "uint16"
            },
            {
              "internalType": "uint16",
              "name": "liquidationBonus",
              "type": "uint16"
            },
            {
              "internalType": "uint16",
              "name": "supplyRateBps",
              "type": "uint16"
            },
            {
              "internalType": "uint16",
              "name": "borrowRateBps",
              "type": "uint16"
            },
            {
              "internalType": "uint128",
              "name": "priceUsd",
              "type": "uint128"
            },
            {
              "internalType": "uint256",
              "name": "totalSupplied",
              "type": "uint256"
            },
            {
              "internalType": "uint256",
              "name": "totalBorrowed",
              "type": "uint256"
            },
            {
              "internalType": "uint256",
              "name": "availableLiquidity",
              "type": "uint256"
            }
          ],
          "internalType": "struct RWAPool.AggregatedReserveData[]",
          "name": "data",
          "type": "tuple[]"
        }
      ],
      "stateMutability": "view",
      "type": "function"
    },
    {
      "inputs": [
        {
          "internalType": "address",
          "name": "asset",
          "type": "address"
        }
      ],
      "name": "getAssetPrice",
      "outputs": [
        {
          "internalType": "uint256",
          "name": "",
          "type": "uint256"
        }
      ],
      "stateMutability": "view",
      "type": "function"
    },
    {
      "inputs": [],
      "name": "getReservesList",
      "outputs": [
        {
          "internalType": "address[]",
          "name": "",
          "type": "address[]"
        }
      ],
      "stateMutability": "view",
      "type": "function"
    },
    {
      "inputs": [
        {
          "internalType": "address",
          "name": "user",
          "type": "address"
        }
      ],
      "name": "getUserAccountData",
      "outputs": [
        {
          "internalType": "uint256",
          "name": "totalCollateralBase",
          "type": "uint256"
        },
        {
          "internalType": "uint256",
          "name": "totalDebtBase",
          "type": "uint256"
        },
        {
          "internalType": "uint256",
          "name": "availableBorrowsBase",
          "type": "uint256"
        },
        {
          "internalType": "uint256",
          "name": "currentLiquidationThreshold",
          "type": "uint256"
        },
        {
          "internalType": "uint256",
          "name": "ltv",
          "type": "uint256"
        },
        {
          "internalType": "uint256",
          "name": "healthFactor",
          "type": "uint256"
        }
      ],
      "stateMutability": "view",
      "type": "function"
    },
    {
      "inputs": [
        {
          "internalType": "address",
          "name": "user",
          "type": "address"
        }
      ],
      "name": "getUserReservesData",
      "outputs": [
        {
          "components": [
            {
              "internalType": "address",
              "name": "asset",
              "type": "address"
            },
            {
              "internalType": "uint256",
              "name": "supplied",
              "type": "uint256"
            },
            {
              "internalType": "uint256",
              "name": "currentDebt",
              "type": "uint256"
            },
            {
              "internalType": "bool",
              "name": "usageAsCollateralEnabled",
              "type": "bool"
            }
          ],
          "internalType": "struct RWAPool.UserReserveData[]",
          "name": "data",
          "type": "tuple[]"
        }
      ],
      "stateMutability": "view",
      "type": "function"
    },
    {
      "inputs": [
        {
          "internalType": "address",
          "name": "asset",
          "type": "address"
        },
        {
          "internalType": "bool",
          "name": "borrowingEnabled",
          "type": "bool"
        },
        {
          "internalType": "bool",
          "name": "collateralEnabled",
          "type": "bool"
        },
        {
          "internalType": "uint16",
          "name": "ltv",
          "type": "uint16"
        },
        {
          "internalType": "uint16",
          "name": "liquidationThreshold",
          "type": "uint16"
        },
        {
          "internalType": "uint16",
          "name": "liquidationBonus",
          "type": "uint16"
        },
        {
          "internalType": "uint16",
          "name": "supplyRateBps",
          "type": "uint16"
        },
        {
          "internalType": "uint16",
          "name": "borrowRateBps",
          "type": "uint16"
        },
        {
          "internalType": "uint128",
          "name": "priceUsd",
          "type": "uint128"
        }
      ],
      "name": "initReserve",
      "outputs": [],
      "stateMutability": "nonpayable",
      "type": "function"
    },
    {
      "inputs": [],
      "name": "initialize",
      "outputs": [],
      "stateMutability": "nonpayable",
      "type": "function"
    },
    {
      "inputs": [
        {
          "internalType": "address",
          "name": "collateralAsset",
          "type": "address"
        },
        {
          "internalType": "address",
          "name": "debtAsset",
          "type": "address"
        },
        {
          "internalType": "address",
          "name": "user",
          "type": "address"
        },
        {
          "internalType": "uint256",
          "name": "debtToCover",
          "type": "uint256"
        },
        {
          "internalType": "bool",
          "name": "receiveAToken",
          "type": "bool"
        }
      ],
      "name": "liquidationCall",
      "outputs": [
        {
          "internalType": "uint256",
          "name": "",
          "type": "uint256"
        },
        {
          "internalType": "uint256",
          "name": "",
          "type": "uint256"
        }
      ],
      "stateMutability": "nonpayable",
      "type": "function"
    },
    {
      "inputs": [],
      "name": "owner",
      "outputs": [
        {
          "internalType": "address",
          "name": "",
          "type": "address"
        }
      ],
      "stateMutability": "view",
      "type": "function"
    },
    {
      "inputs": [],
      "name": "renounceOwnership",
      "outputs": [],
      "stateMutability": "nonpayable",
      "type": "function"
    },
    {
      "inputs": [
        {
          "internalType": "address",
          "name": "asset",
          "type": "address"
        },
        {
          "internalType": "uint256",
          "name": "amount",
          "type": "uint256"
        },
        {
          "internalType": "uint256",
          "name": "",
          "type": "uint256"
        },
        {
          "internalType": "address",
          "name": "onBehalfOf",
          "type": "address"
        }
      ],
      "name": "repay",
      "outputs": [
        {
          "internalType": "uint256",
          "name": "",
          "type": "uint256"
        }
      ],
      "stateMutability": "nonpayable",
      "type": "function"
    },
    {
      "inputs": [
        {
          "internalType": "address",
          "name": "asset",
          "type": "address"
        },
        {
          "internalType": "uint256",
          "name": "amount",
          "type": "uint256"
        },
        {
          "internalType": "address",
          "name": "to",
          "type": "address"
        }
      ],
      "name": "rescue",
      "outputs": [],
      "stateMutability": "nonpayable",
      "type": "function"
    },
    {
      "inputs": [
        {
          "internalType": "address",
          "name": "",
          "type": "address"
        }
      ],
      "name": "reserveConfigs",
      "outputs": [
        {
          "internalType": "bool",
          "name": "initialized",
          "type": "bool"
        },
        {
          "internalType": "bool",
          "name": "borrowingEnabled",
          "type": "bool"
        },
        {
          "internalType": "bool",
          "name": "collateralEnabled",
          "type": "bool"
        },
        {
          "internalType": "uint16",
          "name": "ltv",
          "type": "uint16"
        },
        {
          "internalType": "uint16",
          "name": "liquidationThreshold",
          "type": "uint16"
        },
        {
          "internalType": "uint16",
          "name": "liquidationBonus",
          "type": "uint16"
        },
        {
          "internalType": "uint16",
          "name": "supplyRateBps",
          "type": "uint16"
        },
        {
          "internalType": "uint16",
          "name": "borrowRateBps",
          "type": "uint16"
        },
        {
          "internalType": "uint8",
          "name": "decimals",
          "type": "uint8"
        },
        {
          "internalType": "uint128",
          "name": "priceUsd",
          "type": "uint128"
        }
      ],
      "stateMutability": "view",
      "type": "function"
    },
    {
      "inputs": [
        {
          "internalType": "address",
          "name": "asset",
          "type": "address"
        },
        {
          "internalType": "uint128",
          "name": "priceUsd",
          "type": "uint128"
        }
      ],
      "name": "setAssetPrice",
      "outputs": [],
      "stateMutability": "nonpayable",
      "type": "function"
    },
    {
      "inputs": [
        {
          "internalType": "address",
          "name": "asset",
          "type": "address"
        },
        {
          "internalType": "bool",
          "name": "useAsCollateral",
          "type": "bool"
        }
      ],
      "name": "setUserUseReserveAsCollateral",
      "outputs": [],
      "stateMutability": "nonpayable",
      "type": "function"
    },
    {
      "inputs": [
        {
          "internalType": "address",
          "name": "",
          "type": "address"
        },
        {
          "internalType": "address",
          "name": "",
          "type": "address"
        }
      ],
      "name": "supplied",
      "outputs": [
        {
          "internalType": "uint256",
          "name": "",
          "type": "uint256"
        }
      ],
      "stateMutability": "view",
      "type": "function"
    },
    {
      "inputs": [
        {
          "internalType": "address",
          "name": "asset",
          "type": "address"
        },
        {
          "internalType": "uint256",
          "name": "amount",
          "type": "uint256"
        },
        {
          "internalType": "address",
          "name": "onBehalfOf",
          "type": "address"
        },
        {
          "internalType": "uint16",
          "name": "referralCode",
          "type": "uint16"
        }
      ],
      "name": "supply",
      "outputs": [],
      "stateMutability": "nonpayable",
      "type": "function"
    },
    {
      "inputs": [
        {
          "internalType": "address",
          "name": "",
          "type": "address"
        }
      ],
      "name": "totalBorrowed",
      "outputs": [
        {
          "internalType": "uint256",
          "name": "",
          "type": "uint256"
        }
      ],
      "stateMutability": "view",
      "type": "function"
    },
    {
      "inputs": [
        {
          "internalType": "address",
          "name": "",
          "type": "address"
        }
      ],
      "name": "totalSupplied",
      "outputs": [
        {
          "internalType": "uint256",
          "name": "",
          "type": "uint256"
        }
      ],
      "stateMutability": "view",
      "type": "function"
    },
    {
      "inputs": [
        {
          "internalType": "address",
          "name": "newOwner",
          "type": "address"
        }
      ],
      "name": "transferOwnership",
      "outputs": [],
      "stateMutability": "nonpayable",
      "type": "function"
    },
    {
      "inputs": [
        {
          "internalType": "address",
          "name": "asset",
          "type": "address"
        },
        {
          "internalType": "uint256",
          "name": "amount",
          "type": "uint256"
        },
        {
          "internalType": "address",
          "name": "to",
          "type": "address"
        }
      ],
      "name": "withdraw",
      "outputs": [
        {
          "internalType": "uint256",
          "name": "",
          "type": "uint256"
        }
      ],
      "stateMutability": "nonpayable",
      "type": "function"
    }
  ],
  "bytecode": "0x6080806040523460aa575f5160206129d45f395f51905f525460ff8160401c16609b576002600160401b03196001600160401b038216016049575b60405161292590816100af8239f35b6001600160401b0319166001600160401b039081175f5160206129d45f395f51905f525581527fc7f505b2f371ae2175ee4913f4499e1f2633a7b5936321eed1cdaeb6115181d290602090a15f80603a565b63f92ee8a960e01b5f5260045ffd5b5f80fdfe60806040526004361015610011575f80fd5b5f3560e01c8062a718a914611bbc57806307e18d9114611b9a5780631f655b6914611b4a578063249d39e914611b2e578063311d5c6214611b1357806348ddab6414611af7578063573ade811461193b5780635a3b74b914611816578063617ba037146116db57806369328dec146114da5780636bbe56cf146114a25780636ca5d97214611452578063715018a6146113eb578063717437a31461106657806379751e1b14610ec55780638129fc1c14610d815780638671d23b14610cfb57806387dd56bc14610ca45780638da5cb5b14610c705780639f7f41bb14610c20578063a415bcad14610908578063b1fa847e1461082e578063b3596f07146107ea578063b4bc12de146107c8578063bf92857c14610780578063d1946dbc146106ba578063e2e1ca2b14610682578063e6a69ab814610664578063f1af9b0414610257578063f2fde38b1461022c5763f4a3db1b1461016d575f80fd5b34610228576020366003190112610228576001600160a01b0361018e612112565b165f52600160205261014060405f20546001600160801b036040519160ff81161515835260ff8160081c161515602084015260ff8160101c161515604084015261ffff8160181c16606084015261ffff8160281c16608084015261ffff8160381c1660a084015261ffff8160481c1660c084015261ffff8160581c1660e084015260ff8160681c1661010084015260701c16610120820152f35b5f80fd5b3461022857602036600319011261022857610255610248612112565b6102506127b5565b612695565b005b34610228575f366003190112610228575f54610272816123ab565b9061028060405192836122b2565b808252601f1961028f826123ab565b015f5b8181106105ea5750505f5b8181106103e557826040518091602082016020835281518091526040830190602060408260051b8601019301915f905b8282106102dc57505050500390f35b919360019193955060208091603f19898203018552875190848060a01b0382511681526101c08061033161031f868601516101e0888701526101e08601906121ae565b604086015185820360408701526121ae565b9360ff606082015116606085015260808101511515608085015260a0810151151560a085015261ffff60c08201511660c085015261ffff60e08201511660e085015261ffff6101008201511661010085015261ffff6101208201511661012085015261ffff610140820151166101408501526001600160801b03610160820151166101608501526101808101516101808501526101a08101516101a0850152015191015296019201920185949391926102cd565b6103ee81612381565b905460039190911b1c6001600160a01b03165f8181526001602052604080822090516306fdde0360e01b81529093929181600481855afa9081156105a1575f916105d0575b506040516395d89b4160e01b8152935f85600481865afa9485156105a1575f956105ac575b5054825f52600260205260405f2054835f52600360205260405f205491604051936370a0823160e01b8552306004860152602085602481895afa9485156105a1575f9561056b575b50906001976001600160801b0392604051976104bb89612295565b88526020880152604087015260ff8160681c16606087015260ff8160081c161515608087015260ff8160101c16151560a087015261ffff8160181c1660c087015261ffff8160281c1660e087015261ffff8160381c1661010087015261ffff8160481c1661012087015261ffff8160581c1661014087015260701c166101608501526101808401526101a08301526101c082015261055982866123c3565b5261056481856123c3565b500161029d565b919094506020823d8211610599575b81610587602093836122b2565b810103126102285790519360016104a0565b3d915061057a565b6040513d5f823e3d90fd5b6105c99195503d805f833e6105c181836122b2565b810190612622565b9387610458565b6105e491503d805f833e6105c181836122b2565b86610433565b6020906040516105f981612295565b5f8152606083820152606060408201525f60608201525f60808201525f60a08201525f60c08201525f60e08201525f6101008201525f6101208201525f6101408201525f6101608201525f6101808201525f6101a08201525f6101c082015282828701015201610292565b34610228575f3660031901126102285760206040516301e133808152f35b34610228576020366003190112610228576001600160a01b036106a3612112565b165f526003602052602060405f2054604051908152f35b34610228575f366003190112610228576040518060205f54928381520180925f80527f290decd9548b62a8d60345a988386fc84ba6bc95484008f6362f93160ef3e563905f5b81811061076157505050816107169103826122b2565b604051918291602083019060208452518091526040830191905f5b81811061073f575050500390f35b82516001600160a01b0316845285945060209384019390920191600101610731565b82546001600160a01b0316845260209093019260019283019201610700565b346102285760203660031901126102285760c06107a361079e612112565b6123e8565b93604093919351958652602086015260408501526060840152608083015260a0820152f35b34610228575f366003190112610228576020604051670de0b6b3a76400008152f35b34610228576020366003190112610228576001600160a01b0361080b612112565b165f52600160205260206001600160801b0360405f205460701c16604051908152f35b3461022857604036600319011261022857610847612112565b602435906001600160801b03821690818303610228577f0d86730737b142fc160892fa8a0f2db687a92a0e294d1ad70624cf5acef03b84916108ff60209261088d6127b5565b60018060a01b031694855f52600184526108ad60ff60405f2054166121d2565b6108b8831515612344565b5f868152600185526040902080546fffffffffffffffffffffffffffffffff60701b191660709290921b6fffffffffffffffffffffffffffffffff60701b16919091179055565b604051908152a2005b346102285760a036600319011261022857610921612112565b60243561092c612163565b6084356001600160a01b03811693908490036102285760018060a01b03811692835f52600160205260405f209160ff83546109688282166121d2565b60081c1615610be65761097c82151561220e565b338603610ba1576040516370a0823160e01b8152306004820152602081602481895afa80156105a15783915f91610b6c575b5010610b2e576109be9033612706565b335f52600560205260405f20845f5260205260405f206109df828254612337565b9055835f52600360205260405f206109f8828254612337565b9055610a03336123e8565b5091505061271082939202928084046127101490151715610b1a57610a2791612248565b10610ae75760405163a9059cbb60e01b8152336004820152602481018290526020816044815f895af19384156105a15761ffff60a094610a917fc6a898309e823ee50bac64e45ca8adba6690e99e7841c45d754e2a38e9019d9b9783955f91610ab8575b506122ec565b5460581c1660405193338552602085015260443560408501526060840152166080820152a3005b610ada915060203d602011610ae0575b610ad281836122b2565b8101906122d4565b8b610a8b565b503d610ac8565b60405162461bcd60e51b815260206004820152600b60248201526a32bc31b2b2b23990262a2b60a91b6044820152606490fd5b634e487b7160e01b5f52601160045260245ffd5b60405162461bcd60e51b8152602060048201526016602482015275696e73756666696369656e74206c697175696469747960501b6044820152606490fd5b9150506020813d602011610b99575b81610b88602093836122b2565b8101031261022857829051886109ae565b3d9150610b7b565b60405162461bcd60e51b815260206004820152601d60248201527f6372656469742064656c65676174696f6e20756e737570706f727465640000006044820152606490fd5b60405162461bcd60e51b8152602060048201526012602482015271189bdc9c9bddda5b99c8191a5cd8589b195960721b6044820152606490fd5b3461022857604036600319011261022857610c39612112565b610c41612128565b6001600160a01b039182165f908152600660209081526040808320949093168252928352819020549051908152f35b34610228575f366003190112610228575f5160206128b05f395f51905f52546040516001600160a01b039091168152602090f35b3461022857604036600319011261022857610cbd612112565b610cc5612128565b9060018060a01b03165f52600760205260405f209060018060a01b03165f52602052602060ff60405f2054166040519015158152f35b3461022857610d506020610d0e36612174565b610d199291926127b5565b60405163a9059cbb60e01b81526001600160a01b0390911660048201526024810192909252909283919082905f9082906044820190565b03926001600160a01b03165af180156105a157610d6957005b6102559060203d602011610ae057610ad281836122b2565b34610228575f366003190112610228575f5160206128d05f395f51905f525460ff8160401c16159067ffffffffffffffff811680159081610ebd575b6001149081610eb3575b159081610eaa575b50610e9b5767ffffffffffffffff1981166001175f5160206128d05f395f51905f525581610e6f575b50610e01612884565b610e09612884565b610e1233612695565b610e1857005b68ff0000000000000000195f5160206128d05f395f51905f5254165f5160206128d05f395f51905f52557fc7f505b2f371ae2175ee4913f4499e1f2633a7b5936321eed1cdaeb6115181d2602060405160018152a1005b68ffffffffffffffffff191668010000000000000001175f5160206128d05f395f51905f525581610df8565b63f92ee8a960e01b5f5260045ffd5b90501583610dcf565b303b159150610dc7565b839150610dbd565b3461022857602036600319011261022857610ede612112565b5f5490610eea826123ab565b91610ef860405193846122b2565b808352601f19610f07826123ab565b015f5b818110611037575090916001600160a01b03811691505f5b838110610f9857846040518091602082016020835281518091526020604084019201905f5b818110610f55575050500390f35b919350916020608060019260608751858060a01b038151168352848101518584015260408101516040840152015115156060820152019401910191849392610f47565b80610fa4600192612381565b838060a01b0391549060031b1c16845f52600460205260405f20838060a01b0382165f5260205260405f2054610fda82866127e8565b865f52600760205260405f20858060a01b0384165f5260205260ff60405f20541615916040519361100a85612279565b845260208401526040830152606082015261102582886123c3565b5261103081876123c3565b5001610f22565b60209060405161104681612279565b5f81525f838201525f60408201525f606082015282828801015201610f0a565b346102285761012036600319011261022857611080612112565b611088612154565b604435918215158093036102285761109e612163565b926084359061ffff82168092036102285760a4359061ffff82168092036102285760c4359061ffff82168092036102285760e4359161ffff83168093036102285761010435956001600160801b038716809703610228576110fd6127b5565b6001600160a01b03165f8181526001602052604090205490989060ff166113b05761ffff1680861061137957611134871515612344565b60405163313ce56760e01b8152946020866004818d5afa9586156105a1575f9661133b575b50604051986101408a018a811067ffffffffffffffff8211176113275760405260018a5260208a01901515815260408a0194855260608a0192835260808a0197885260a08a0191825260c08a0193845260e08a019586526101008a019660ff1687526101208a019889528a5f52600160205260405f20995115156111e9908b9060ff801983541691151516179055565b51151589549451151560101b62ff000016925160181b64ffff00000016975160281b66ffff000000000016915160381b61ffff60381b16935160481b61ffff60481b169561ffff60581b905160581b169660ff60681b905160681b169760ff60681b199561ffff60581b199461ffff60481b199361ffff60381b199266ffff0000000000199160081b61ff00169064ffffffff001916171617161716171617161717178255516001600160801b03166112c391908154906001600160801b0360701b9060701b16906001600160801b0360701b1916179055565b5f5468010000000000000000811015611327578060016112e592015f55612381565b81546001600160a01b0360039290921b91821b19169083901b1790557f0499d871c77da24e23f15a1c0c61d9741a93909db53cb6eb3b8575ab6a9179fe5f80a2005b634e487b7160e01b5f52604160045260245ffd5b9095506020813d602011611371575b81611357602093836122b2565b81010312610228575160ff8116810361022857948a611159565b3d915061134a565b60405162461bcd60e51b815260206004820152600f60248201526e3a343932b9b437b632101e10363a3b60891b6044820152606490fd5b60405162461bcd60e51b8152602060048201526013602482015272185b1c9958591e481a5b9a5d1a585b1a5e9959606a1b6044820152606490fd5b34610228575f366003190112610228576114036127b5565b5f5160206128b05f395f51905f5280546001600160a01b031981169091555f906001600160a01b03167f8be0079c531659141344cd1fd0a4f28419497f9722a3daafe3b4186f6b6457e08280a3005b346102285760403660031901126102285761146b612112565b611473612128565b6001600160a01b039182165f908152600560209081526040808320949093168252928352819020549051908152f35b34610228576020366003190112610228576001600160a01b036114c3612112565b165f526002602052602060405f2054604051908152f35b34610228576114e836612174565b6001600160a01b039092165f8181526001602052604090205461150d9060ff166121d2565b335f52600460205260405f20815f5260205260405f2054915f1981145f146116d55750815b821515806116cb575b15611695578261154a9161232a565b335f52600460205260405f20825f5260205260405f2055805f52600260205260405f2061157883825461232a565b9055611583336123e8565b945050505015908115611682575b501561163d5760405163a9059cbb60e01b81526001600160a01b038416600482015260248101839052926020846044815f865af19384156105a1576020946115df915f9161162057506122ec565b6040518381526001600160a01b039091169133917f3115d1449a7b732c986cba18244e897a450f61e1bb8d589cd2e69e6c8924f9f7908690a4604051908152f35b6116379150863d8811610ae057610ad281836122b2565b86610a8b565b60405162461bcd60e51b815260206004820152601960248201527f484620746f6f206c6f77206166746572207769746864726177000000000000006044820152606490fd5b670de0b6b3a76400009150101584611591565b60405162461bcd60e51b815260206004820152600e60248201526d1a5b9d985b1a5908185b5bdd5b9d60921b6044820152606490fd5b508083111561153b565b91611532565b34610228576080366003190112610228576116f4612112565b6024356116ff61213e565b611707612163565b9260018060a01b031691825f52600160205261172960ff60405f2054166121d2565b61173481151561220e565b6040516323b872dd60e01b815233600482015230602482015260448101829052906020826064815f885af180156105a1577f2b627736bca15cd5381dcf80b0bf11fd197d01a037c52b927a881a10fb73ba619361179d61ffff926060955f916117f757506122ec565b60018060a01b031695865f52600460205260405f20865f5260205260405f206117c7848254612337565b9055855f52600260205260405f206117e0848254612337565b9055604051923384526020840152166040820152a3005b611810915060203d602011610ae057610ad281836122b2565b89610a8b565b346102285760403660031901126102285761182f612112565b611837612154565b9060018060a01b031690815f52600160205261185960ff60405f2054166121d2565b15335f52600760205260405f20825f526020526118858160405f209060ff801983541691151516179055565b1561191457611893336123e8565b945050505015908115611901575b50156118cf5733907f44c58d81365b66dd4b1a7f36c25aa97b8c71c361ee4937adc1a00000227db5dd5f80a3005b60405162461bcd60e51b815260206004820152600a602482015269484620746f6f206c6f7760b01b6044820152606490fd5b670de0b6b3a764000091501015826118a1565b33907e058a56ea94653cdf4f152d227ace22d4c00ad99e2a43f58cb7d9e3feb295f25f80a3005b3461022857608036600319011261022857611954612112565b602435906064356001600160a01b03811691828203610228576119989060018060a01b03811692835f52600160205261199360ff60405f2054166121d2565b612706565b815f52600560205260405f20815f5260205260405f2054928315611ac8575f1981148015611abf575b15611ab9575082915b6040516323b872dd60e01b8152336004820152306024820152604481018490526020816064815f875af180156105a157602095611a128692611a17945f91611aa257506122ec565b61232a565b815f526005855260405f20835f52855260405f2055815f52600384528260405f205410155f14611a9c57815f5260038452611a568360405f205461232a565b825f526003855260405f2055604051918383525f858401527fa534c8dbe71f871f9f3530e97a74601fea17b426cae02e1c5aee42c96c78405160403394a4604051908152f35b5f611a56565b6118109150893d8b11610ae057610ad281836122b2565b916119ca565b508381116119c1565b60405162461bcd60e51b81526020600482015260076024820152661b9bc81919589d60ca1b6044820152606490fd5b34610228575f3660031901126102285760206040516113888152f35b34610228575f36600319011261022857602060405160088152f35b34610228575f3660031901126102285760206040516127108152f35b3461022857604036600319011261022857611b63612112565b611b6b612128565b6001600160a01b039182165f908152600460209081526040808320949093168252928352819020549051908152f35b34610228575f366003190112610228576020604051670d2f13f7789f00008152f35b346102285760a036600319011261022857611bd5612112565b611bdd612128565b611be561213e565b60643560843593841515809503610228576001600160a01b03165f8181526001602052604090205490929060ff16806120f1575b611c22906121d2565b825f52600160205260ff60405f205460101c16156120b55760018060a01b03811691825f52600760205260405f20845f5260205260ff60405f20541661207857611c6d81151561220e565b611c76826123e8565b969450505050151580612067575b156120315785611c9391612706565b825f52600560205260405f2060018060a01b0386165f5260205260405f2054918215611ff957670d2f13f7789f00001115611fde5781905b81811115611fd65750925b8394815f52600160205260405f209060018060a01b031692835f52600160205260405f2054611d2c60ff611d176001600160801b038460701c16809a612248565b9260681c1691611d26836123d7565b9061225b565b92549061ffff8260381c1661271001938461271011610b1a5784611d4f91612248565b936001600160801b03611d7260ff8560681c1696611d6c886123d7565b90612248565b9360701c169261271084028481046127101485151715610b1a57611d959161225b565b98885f52600460205260405f20875f5260205260405f2054958615611f9857868b11611f3e575b50506040516323b872dd60e01b8152336004820152306024820152604481018b9052949250602091508490506064815f895af19283156105a157888893611a12611e6596611e10945f91611f1f57506122ec565b865f52600560205260405f20865f5260205260405f2055845f5260036020528760405f205410155f14611f1957845f526003602052611e538860405f205461232a565b855f52600360205260405f205561232a565b835f52600460205260405f20825f5260205260405f2055805f52600260205260405f20611e9385825461232a565b905560405163a9059cbb60e01b8152336004820152602481018590526020816044815f865af180156105a157604097611ef66080927fe413a321e8681d831f4dbccbca790d2952b56f977908e45be37335533e005286945f91610ab857506122ec565b885190888252876020830152338a8301526060820152a482519182526020820152f35b5f611e53565b611f38915060203d602011610ae057610ad281836122b2565b8e610a8b565b9092949a50611f5e91939950611d26611f58879b88612248565b916123d7565b906127108202918083046127101490151715610b1a57611f87611d2692611d6c611f8d966123d7565b92612248565b958880808080611dbc565b60405162461bcd60e51b81526020600482015260166024820152751b9bc818dbdb1b185d195c985b081a5b88185cdcd95d60521b6044820152606490fd5b905092611cd6565b611388820282810461138803610b1a57612710900490611ccb565b60405162461bcd60e51b815260206004820152601060248201526f1b9bc81919589d081a5b88185cdcd95d60821b6044820152606490fd5b60405162461bcd60e51b815260206004820152600e60248201526d4846206e6f742062656c6f77203160901b6044820152606490fd5b50670de0b6b3a76400008310611c84565b60405162461bcd60e51b8152602060048201526015602482015274636f6c6c61746572616c206e6f742061637469766560581b6044820152606490fd5b60405162461bcd60e51b8152602060048201526014602482015273185cdcd95d081b9bdd0818dbdb1b185d195c985b60621b6044820152606490fd5b506001600160a01b0384165f9081526001602052604090205460ff16611c19565b600435906001600160a01b038216820361022857565b602435906001600160a01b038216820361022857565b604435906001600160a01b038216820361022857565b60243590811515820361022857565b6064359061ffff8216820361022857565b6060906003190112610228576004356001600160a01b03811681036102285790602435906044356001600160a01b03811681036102285790565b805180835260209291819084018484015e5f828201840152601f01601f1916010190565b156121d957565b60405162461bcd60e51b815260206004820152600d60248201526c1d5b9adb9bdddb88185cdcd95d609a1b6044820152606490fd5b1561221557565b60405162461bcd60e51b815260206004820152600b60248201526a1e995c9bc8185b5bdd5b9d60aa1b6044820152606490fd5b81810292918115918404141715610b1a57565b8115612265570490565b634e487b7160e01b5f52601260045260245ffd5b6080810190811067ffffffffffffffff82111761132757604052565b6101e0810190811067ffffffffffffffff82111761132757604052565b90601f8019910116810190811067ffffffffffffffff82111761132757604052565b90816020910312610228575180151581036102285790565b156122f357565b60405162461bcd60e51b815260206004820152600f60248201526e1d1c985b9cd9995c8819985a5b1959608a1b6044820152606490fd5b91908203918211610b1a57565b91908201809211610b1a57565b1561234b57565b60405162461bcd60e51b815260206004820152600e60248201526d1c1c9a58d9481c995c5d5a5c995960921b6044820152606490fd5b5f54811015612397575f805260205f2001905f90565b634e487b7160e01b5f52603260045260245ffd5b67ffffffffffffffff81116113275760051b60200190565b80518210156123975760209160051b010190565b60ff16604d8111610b1a57600a0a90565b5f915f915f905f90855f5f925f905f54915b8281106124a95750505081612487575b5061271091508261241a91612248565b04848082111561247f5761242d9161232a565b9284612438575f1990565b6124428387612248565b670de0b6b3a7640000810290808204670de0b6b3a76400001490151715610b1a57612710860286810461271003610b1a5761247c9161225b565b90565b50505f61242d565b819294506124a093509061249a9161225b565b9261225b565b905f858161240a565b90919293506124b781612381565b90546001600160a01b0360039290921b1c81165f8181526001602090815260408083209487168084526004835281842085855290925290912054908115159081612613575b816125e9575b5061256a575b5061251390846127e8565b9081612529575b505060010190899392916123fa565b9961255c61256292611d2660ff6125526001979f54936001600160801b038560701c1690612248565b9260681c166123d7565b90612337565b98905f61251a565b959b8297919754968760701c6001600160801b031661258891612248565b8760681c60ff16612598906123d7565b6125a19161225b565b90816125ac91612337565b9c8760181c61ffff166125bf9083612248565b6125c891612337565b9660281c61ffff166125d991612248565b6125e291612337565b955f612508565b90505f52600760205260405f2060018060a01b0383165f5260205260ff60405f205416155f612502565b845460101c60ff1691506124fc565b6020818303126102285780519067ffffffffffffffff8211610228570181601f820112156102285780519067ffffffffffffffff82116113275760405192612674601f8401601f1916602001856122b2565b8284526020838301011161022857815f9260208093018386015e8301015290565b6001600160a01b031680156126f3575f5160206128b05f395f51905f5280546001600160a01b0319811683179091556001600160a01b03167f8be0079c531659141344cd1fd0a4f28419497f9722a3daafe3b4186f6b6457e05f80a3565b631e4fbdf760e01b5f525f60045260245ffd5b61271082826127e8565b6001600160a01b039182165f81815260056020908152604080832095871683529490529290922054808211612764575b50505f52600660205260405f209060018060a01b03165f5260205260405f20429055565b61278d91835f52600560205260405f2060018060a01b0386165f526020528060405f205561232a565b60018060a01b0383165f5260036020526127ac60405f20918254612337565b90555f80612740565b5f5160206128b05f395f51905f52546001600160a01b031633036127d557565b63118cdaa760e01b5f523360045260245ffd5b60018060a01b031690815f52600560205260405f2060018060a01b0382165f5260205260405f205490811561287d5761287664496cebb8009161247c945f52600660205260405f2060018060a01b0382165f5260205261284c60405f20544261232a565b9060018060a01b03165f52600160205261287161ffff60405f205460581c1685612248565b612248565b0490612337565b5050505f90565b60ff5f5160206128d05f395f51905f525460401c16156128a057565b631afcd79f60e31b5f5260045ffdfe9016d09d72d40fdae2fd8ceac6b6234c7706214fd39c1cd1e609a0528c199300f0c57e16840df040f15088dc2f81fe391c3923bec73e23a9662efc9c229c6a00a2646970667358221220acce16b8846c8d7323481dbe41405b021304e5acd7080e6484dbd1ebaf3f576164736f6c634300081c0033f0c57e16840df040f15088dc2f81fe391c3923bec73e23a9662efc9c229c6a00",
  "linkReferences": {},
  "deployedLinkReferences": {},
  "immutableReferences": {},
  "inputSourceName": "project/contracts/RWAPool.sol",
  "buildInfoId": "solc-0_8_28-35d3c98d8d178c4ae08d8c726cd1701aad32dda4"
}