{
  "_format": "hh3-artifact-1",
  "contractName": "RWAPool",
  "sourceName": "contracts/RWAPool.sol",
  "abi": [
    {
      "inputs": [],
      "stateMutability": "nonpayable",
      "type": "constructor"
    },
    {
      "inputs": [],
      "name": "InvalidInitialization",
      "type": "error"
    },
    {
      "inputs": [],
      "name": "NotInitializing",
      "type": "error"
    },
    {
      "inputs": [
        {
          "internalType": "address",
          "name": "owner",
          "type": "address"
        }
      ],
      "name": "OwnableInvalidOwner",
      "type": "error"
    },
    {
      "inputs": [
        {
          "internalType": "address",
          "name": "account",
          "type": "address"
        }
      ],
      "name": "OwnableUnauthorizedAccount",
      "type": "error"
    },
    {
      "anonymous": false,
      "inputs": [
        {
          "indexed": true,
          "internalType": "address",
          "name": "reserve",
          "type": "address"
        },
        {
          "indexed": false,
          "internalType": "address",
          "name": "user",
          "type": "address"
        },
        {
          "indexed": true,
          "internalType": "address",
          "name": "onBehalfOf",
          "type": "address"
        },
        {
          "indexed": false,
          "internalType": "uint256",
          "name": "amount",
          "type": "uint256"
        },
        {
          "indexed": false,
          "internalType": "uint256",
          "name": "interestRateMode",
          "type": "uint256"
        },
        {
          "indexed": false,
          "internalType": "uint256",
          "name": "borrowRate",
          "type": "uint256"
        },
        {
          "indexed": false,
          "internalType": "uint16",
          "name": "referralCode",
          "type": "uint16"
        }
      ],
      "name": "Borrow",
      "type": "event"
    },
    {
      "anonymous": false,
      "inputs": [
        {
          "indexed": false,
          "internalType": "uint64",
          "name": "version",
          "type": "uint64"
        }
      ],
      "name": "Initialized",
      "type": "event"
    },
    {
      "anonymous": false,
      "inputs": [
        {
          "indexed": true,
          "internalType": "address",
          "name": "collateralAsset",
          "type": "address"
        },
        {
          "indexed": true,
          "internalType": "address",
          "name": "debtAsset",
          "type": "address"
        },
        {
          "indexed": true,
          "internalType": "address",
          "name": "user",
          "type": "address"
        },
        {
          "indexed": false,
          "internalType": "uint256",
          "name": "debtToCover",
          "type": "uint256"
        },
        {
          "indexed": false,
          "internalType": "uint256",
          "name": "liquidatedCollateralAmount",
          "type": "uint256"
        },
        {
          "indexed": false,
          "internalType": "address",
          "name": "liquidator",
          "type": "address"
        },
        {
          "indexed": false,
          "internalType": "bool",
          "name": "receiveAToken",
          "type": "bool"
        }
      ],
      "name": "LiquidationCall",
      "type": "event"
    },
    {
      "anonymous": false,
      "inputs": [
        {
          "indexed": true,
          "internalType": "address",
          "name": "previousOwner",
          "type": "address"
        },
        {
          "indexed": true,
          "internalType": "address",
          "name": "newOwner",
          "type": "address"
        }
      ],
      "name": "OwnershipTransferred",
      "type": "event"
    },
    {
      "anonymous": false,
      "inputs": [
        {
          "indexed": true,
          "internalType": "address",
          "name": "asset",
          "type": "address"
        },
        {
          "indexed": false,
          "internalType": "uint256",
          "name": "priceUsd",
          "type": "uint256"
        }
      ],
      "name": "PriceUpdated",
      "type": "event"
    },
    {
      "anonymous": false,
      "inputs": [
        {
          "indexed": true,
          "internalType": "address",
          "name": "reserve",
          "type": "address"
        },
        {
          "indexed": true,
          "internalType": "address",
          "name": "user",
          "type": "address"
        },
        {
          "indexed": true,
          "internalType": "address",
          "name": "repayer",
          "type": "address"
        },
        {
          "indexed": false,
          "internalType": "uint256",
          "name": "amount",
          "type": "uint256"
        },
        {
          "indexed": false,
          "internalType": "bool",
          "name": "useATokens",
          "type": "bool"
        }
      ],
      "name": "Repay",
      "type": "event"
    },
    {
      "anonymous": false,
      "inputs": [
        {
          "indexed": true,
          "internalType": "address",
          "name": "asset",
          "type": "address"
        }
      ],
      "name": "ReserveInitialized",
      "type": "event"
    },
    {
      "anonymous": false,
      "inputs": [
        {
          "indexed": true,
          "internalType": "address",
          "name": "reserve",
          "type": "address"
        },
        {
          "indexed": true,
          "internalType": "address",
          "name": "user",
          "type": "address"
        }
      ],
      "name": "ReserveUsedAsCollateralDisabled",
      "type": "event"
    },
    {
      "anonymous": false,
      "inputs": [
        {
          "indexed": true,
          "internalType": "address",
          "name": "reserve",
          "type": "address"
        },
        {
          "indexed": true,
          "internalType": "address",
          "name": "user",
          "type": "address"
        }
      ],
      "name": "ReserveUsedAsCollateralEnabled",
      "type": "event"
    },
    {
      "anonymous": false,
      "inputs": [
        {
          "indexed": true,
          "internalType": "address",
          "name": "reserve",
          "type": "address"
        },
        {
          "indexed": false,
          "internalType": "address",
          "name": "user",
          "type": "address"
        },
        {
          "indexed": true,
          "internalType": "address",
          "name": "onBehalfOf",
          "type": "address"
        },
        {
          "indexed": false,
          "internalType": "uint256",
          "name": "amount",
          "type": "uint256"
        },
        {
          "indexed": false,
          "internalType": "uint16",
          "name": "referralCode",
          "type": "uint16"
        }
      ],
      "name": "Supply",
      "type": "event"
    },
    {
      "anonymous": false,
      "inputs": [
        {
          "indexed": true,
          "internalType": "address",
          "name": "reserve",
          "type": "address"
        },
        {
          "indexed": true,
          "internalType": "address",
          "name": "user",
          "type": "address"
        },
        {
          "indexed": true,
          "internalType": "address",
          "name": "to",
          "type": "address"
        },
        {
          "indexed": false,
          "internalType": "uint256",
          "name": "amount",
          "type": "uint256"
        }
      ],
      "name": "Withdraw",
      "type": "event"
    },
    {
      "inputs": [],
      "name": "BASE_CURRENCY_DECIMALS",
      "outputs": [
        {
          "internalType": "uint256",
          "name": "",
          "type": "uint256"
        }
      ],
      "stateMutability": "view",
      "type": "function"
    },
    {
      "inputs": [],
      "name": "BPS",
      "outputs": [
        {
          "internalType": "uint256",
          "name": "",
          "type": "uint256"
        }
      ],
      "stateMutability": "view",
      "type": "function"
    },
    {
      "inputs": [],
      "name": "CLOSE_FACTOR_BPS",
      "outputs": [
        {
          "internalType": "uint256",
          "name": "",
          "type": "uint256"
        }
      ],
      "stateMutability": "view",
      "type": "function"
    },
    {
      "inputs": [],
      "name": "FULL_LIQUIDATION_HF_THRESHOLD",
      "outputs": [
        {
          "internalType": "uint256",
          "name": "",
          "type": "uint256"
        }
      ],
      "stateMutability": "view",
      "type": "function"
    },
    {
      "inputs": [],
      "name": "HEALTH_FACTOR_DECIMALS",
      "outputs": [
        {
          "internalType": "uint256",
          "name": "",
          "type": "uint256"
        }
      ],
      "stateMutability": "view",
      "type": "function"
    },
    {
      "inputs": [],
      "name": "SECONDS_PER_YEAR",
      "outputs": [
        {
          "internalType": "uint256",
          "name": "",
          "type": "uint256"
        }
      ],
      "stateMutability": "view",
      "type": "function"
    },
    {
      "inputs": [
        {
          "internalType": "address",
          "name": "asset",
          "type": "address"
        },
        {
          "internalType": "uint256",
          "name": "amount",
          "type": "uint256"
        },
        {
          "internalType": "uint256",
          "name": "interestRateMode",
          "type": "uint256"
        },
        {
          "internalType": "uint16",
          "name": "referralCode",
          "type": "uint16"
        },
        {
          "internalType": "address",
          "name": "onBehalfOf",
          "type": "address"
        }
      ],
      "name": "borrow",
      "outputs": [],
      "stateMutability": "nonpayable",
      "type": "function"
    },
    {
      "inputs": [
        {
          "internalType": "address",
          "name": "",
          "type": "address"
        },
        {
          "internalType": "address",
          "name": "",
          "type": "address"
        }
      ],
      "name": "collateralDisabled",
      "outputs": [
        {
          "internalType": "bool",
          "name": "",
          "type": "bool"
        }
      ],
      "stateMutability": "view",
      "type": "function"
    },
    {
      "inputs": [
        {
          "internalType": "address",
          "name": "",
          "type": "address"
        },
        {
          "internalType": "address",
          "name": "",
          "type": "address"
        }
      ],
      "name": "debtPrincipal",
      "outputs": [
        {
          "internalType": "uint256",
          "name": "",
          "type": "uint256"
        }
      ],
      "stateMutability": "view",
      "type": "function"
    },
    {
      "inputs": [
        {
          "internalType": "address",
          "name": "",
          "type": "address"
        },
        {
          "internalType": "address",
          "name": "",
          "type": "address"
        }
      ],
      "name": "debtTimestamp",
      "outputs": [
        {
          "internalType": "uint256",
          "name": "",
          "type": "uint256"
        }
      ],
      "stateMutability": "view",
      "type": "function"
    },
    {
      "inputs": [],
      "name": "getAllReservesData",
      "outputs": [
        {
          "components": [
            {
              "internalType": "address",
              "name": "asset",
              "type": "address"
            },
            {
              "internalType": "string",
              "name": "name",
              "type": "string"
            },
            {
              "internalType": "string",
              "name": "symbol",
              "type": "string"
            },
            {
              "internalType": "uint8",
              "name": "decimals",
              "type": "uint8"
            },
            {
              "internalType": "bool",
              "name": "borrowingEnabled",
              "type": "bool"
            },
            {
              "internalType": "bool",
              "name": "collateralEnabled",
              "type": "bool"
            },
            {
              "internalType": "uint16",
              "name": "ltv",
              "type": "uint16"
            },
            {
              "internalType": "uint16",
              "name": "liquidationThreshold",
              "type": "uint16"
            },
            {
              "internalType": "uint16",
              "name": "liquidationBonus",
              "type": "uint16"
            },
            {
              "internalType": "uint16",
              "name": "supplyRateBps",
              "type": "uint16"
            },
            {
              "internalType": "uint16",
              "name": "borrowRateBps",
              "type": "uint16"
            },
            {
              "internalType": "uint128",
              "name": "priceUsd",
              "type": "uint128"
            },
            {
              "internalType": "uint256",
              "name": "totalSupplied",
              "type": "uint256"
            },
            {
              "internalType": "uint256",
              "name": "totalBorrowed",
              "type": "uint256"
            },
            {
              "internalType": "uint256",
              "name": "availableLiquidity",
              "type": "uint256"
            }
          ],
          "internalType": "struct RWAPool.AggregatedReserveData[]",
          "name": "data",
          "type": "tuple[]"
        }
      ],
      "stateMutability": "view",
      "type": "function"
    },
    {
      "inputs": [
        {
          "internalType": "address",
          "name": "asset",
          "type": "address"
        }
      ],
      "name": "getAssetPrice",
      "outputs": [
        {
          "internalType": "uint256",
          "name": "",
          "type": "uint256"
        }
      ],
      "stateMutability": "view",
      "type": "function"
    },
    {
      "inputs": [],
      "name": "getReservesList",
      "outputs": [
        {
          "internalType": "address[]",
          "name": "",
          "type": "address[]"
        }
      ],
      "stateMutability": "view",
      "type": "function"
    },
    {
      "inputs": [
        {
          "internalType": "address",
          "name": "user",
          "type": "address"
        }
      ],
      "name": "getUserAccountData",
      "outputs": [
        {
          "internalType": "uint256",
          "name": "totalCollateralBase",
          "type": "uint256"
        },
        {
          "internalType": "uint256",
          "name": "totalDebtBase",
          "type": "uint256"
        },
        {
          "internalType": "uint256",
          "name": "availableBorrowsBase",
          "type": "uint256"
        },
        {
          "internalType": "uint256",
          "name": "currentLiquidationThreshold",
          "type": "uint256"
        },
        {
          "internalType": "uint256",
          "name": "ltv",
          "type": "uint256"
        },
        {
          "internalType": "uint256",
          "name": "healthFactor",
          "type": "uint256"
        }
      ],
      "stateMutability": "view",
      "type": "function"
    },
    {
      "inputs": [
        {
          "internalType": "address",
          "name": "user",
          "type": "address"
        }
      ],
      "name": "getUserReservesData",
      "outputs": [
        {
          "components": [
            {
              "internalType": "address",
              "name": "asset",
              "type": "address"
            },
            {
              "internalType": "uint256",
              "name": "supplied",
              "type": "uint256"
            },
            {
              "internalType": "uint256",
              "name": "currentDebt",
              "type": "uint256"
            },
            {
              "internalType": "bool",
              "name": "usageAsCollateralEnabled",
              "type": "bool"
            }
          ],
          "internalType": "struct RWAPool.UserReserveData[]",
          "name": "data",
          "type": "tuple[]"
        }
      ],
      "stateMutability": "view",
      "type": "function"
    },
    {
      "inputs": [
        {
          "internalType": "address",
          "name": "asset",
          "type": "address"
        },
        {
          "internalType": "bool",
          "name": "borrowingEnabled",
          "type": "bool"
        },
        {
          "internalType": "bool",
          "name": "collateralEnabled",
          "type": "bool"
        },
        {
          "internalType": "uint16",
          "name": "ltv",
          "type": "uint16"
        },
        {
          "internalType": "uint16",
          "name": "liquidationThreshold",
          "type": "uint16"
        },
        {
          "internalType": "uint16",
          "name": "liquidationBonus",
          "type": "uint16"
        },
        {
          "internalType": "uint16",
          "name": "supplyRateBps",
          "type": "uint16"
        },
        {
          "internalType": "uint16",
          "name": "borrowRateBps",
          "type": "uint16"
        },
        {
          "internalType": "uint128",
          "name": "priceUsd",
          "type": "uint128"
        }
      ],
      "name": "initReserve",
      "outputs": [],
      "stateMutability": "nonpayable",
      "type": "function"
    },
    {
      "inputs": [],
      "name": "initialize",
      "outputs": [],
      "stateMutability": "nonpayable",
      "type": "function"
    },
    {
      "inputs": [
        {
          "internalType": "address",
          "name": "collateralAsset",
          "type": "address"
        },
        {
          "internalType": "address",
          "name": "debtAsset",
          "type": "address"
        },
        {
          "internalType": "address",
          "name": "user",
          "type": "address"
        },
        {
          "internalType": "uint256",
          "name": "debtToCover",
          "type": "uint256"
        },
        {
          "internalType": "bool",
          "name": "receiveAToken",
          "type": "bool"
        }
      ],
      "name": "liquidationCall",
      "outputs": [
        {
          "internalType": "uint256",
          "name": "",
          "type": "uint256"
        },
        {
          "internalType": "uint256",
          "name": "",
          "type": "uint256"
        }
      ],
      "stateMutability": "nonpayable",
      "type": "function"
    },
    {
      "inputs": [],
      "name": "owner",
      "outputs": [
        {
          "internalType": "address",
          "name": "",
          "type": "address"
        }
      ],
      "stateMutability": "view",
      "type": "function"
    },
    {
      "inputs": [],
      "name": "renounceOwnership",
      "outputs": [],
      "stateMutability": "nonpayable",
      "type": "function"
    },
    {
      "inputs": [
        {
          "internalType": "address",
          "name": "asset",
          "type": "address"
        },
        {
          "internalType": "uint256",
          "name": "amount",
          "type": "uint256"
        },
        {
          "internalType": "uint256",
          "name": "",
          "type": "uint256"
        },
        {
          "internalType": "address",
          "name": "onBehalfOf",
          "type": "address"
        }
      ],
      "name": "repay",
      "outputs": [
        {
          "internalType": "uint256",
          "name": "",
          "type": "uint256"
        }
      ],
      "stateMutability": "nonpayable",
      "type": "function"
    },
    {
      "inputs": [
        {
          "internalType": "address",
          "name": "asset",
          "type": "address"
        },
        {
          "internalType": "uint256",
          "name": "amount",
          "type": "uint256"
        },
        {
          "internalType": "address",
          "name": "to",
          "type": "address"
        }
      ],
      "name": "rescue",
      "outputs": [],
      "stateMutability": "nonpayable",
      "type": "function"
    },
    {
      "inputs": [
        {
          "internalType": "address",
          "name": "",
          "type": "address"
        }
      ],
      "name": "reserveConfigs",
      "outputs": [
        {
          "internalType": "bool",
          "name": "initialized",
          "type": "bool"
        },
        {
          "internalType": "bool",
          "name": "borrowingEnabled",
          "type": "bool"
        },
        {
          "internalType": "bool",
          "name": "collateralEnabled",
          "type": "bool"
        },
        {
          "internalType": "uint16",
          "name": "ltv",
          "type": "uint16"
        },
        {
          "internalType": "uint16",
          "name": "liquidationThreshold",
          "type": "uint16"
        },
        {
          "internalType": "uint16",
          "name": "liquidationBonus",
          "type": "uint16"
        },
        {
          "internalType": "uint16",
          "name": "supplyRateBps",
          "type": "uint16"
        },
        {
          "internalType": "uint16",
          "name": "borrowRateBps",
          "type": "uint16"
        },
        {
          "internalType": "uint8",
          "name": "decimals",
          "type": "uint8"
        },
        {
          "internalType": "uint128",
          "name": "priceUsd",
          "type": "uint128"
        }
      ],
      "stateMutability": "view",
      "type": "function"
    },
    {
      "inputs": [
        {
          "internalType": "address",
          "name": "asset",
          "type": "address"
        },
        {
          "internalType": "uint128",
          "name": "priceUsd",
          "type": "uint128"
        }
      ],
      "name": "setAssetPrice",
      "outputs": [],
      "stateMutability": "nonpayable",
      "type": "function"
    },
    {
      "inputs": [
        {
          "internalType": "address",
          "name": "asset",
          "type": "address"
        },
        {
          "internalType": "bool",
          "name": "useAsCollateral",
          "type": "bool"
        }
      ],
      "name": "setUserUseReserveAsCollateral",
      "outputs": [],
      "stateMutability": "nonpayable",
      "type": "function"
    },
    {
      "inputs": [
        {
          "internalType": "address",
          "name": "",
          "type": "address"
        },
        {
          "internalType": "address",
          "name": "",
          "type": "address"
        }
      ],
      "name": "supplied",
      "outputs": [
        {
          "internalType": "uint256",
          "name": "",
          "type": "uint256"
        }
      ],
      "stateMutability": "view",
      "type": "function"
    },
    {
      "inputs": [
        {
          "internalType": "address",
          "name": "asset",
          "type": "address"
        },
        {
          "internalType": "uint256",
          "name": "amount",
          "type": "uint256"
        },
        {
          "internalType": "address",
          "name": "onBehalfOf",
          "type": "address"
        },
        {
          "internalType": "uint16",
          "name": "referralCode",
          "type": "uint16"
        }
      ],
      "name": "supply",
      "outputs": [],
      "stateMutability": "nonpayable",
      "type": "function"
    },
    {
      "inputs": [
        {
          "internalType": "address",
          "name": "",
          "type": "address"
        }
      ],
      "name": "totalBorrowed",
      "outputs": [
        {
          "internalType": "uint256",
          "name": "",
          "type": "uint256"
        }
      ],
      "stateMutability": "view",
      "type": "function"
    },
    {
      "inputs": [
        {
          "internalType": "address",
          "name": "",
          "type": "address"
        }
      ],
      "name": "totalSupplied",
      "outputs": [
        {
          "internalType": "uint256",
          "name": "",
          "type": "uint256"
        }
      ],
      "stateMutability": "view",
      "type": "function"
    },
    {
      "inputs": [
        {
          "internalType": "address",
          "name": "newOwner",
          "type": "address"
        }
      ],
      "name": "transferOwnership",
      "outputs": [],
      "stateMutability": "nonpayable",
      "type": "function"
    },
    {
      "inputs": [
        {
          "internalType": "address",
          "name": "asset",
          "type": "address"
        },
        {
          "internalType": "uint256",
          "name": "amount",
          "type": "uint256"
        },
        {
          "internalType": "address",
          "name": "to",
          "type": "address"
        }
      ],
      "name": "withdraw",
      "outputs": [
        {
          "internalType": "uint256",
          "name": "",
          "type": "uint256"
        }
      ],
      "stateMutability": "nonpayable",
      "type": "function"
    }
  ],
  "bytecode": "0x6080604052348015600e575f5ffd5b5060156019565b60c9565b7ff0c57e16840df040f15088dc2f81fe391c3923bec73e23a9662efc9c229c6a00805468010000000000000000900460ff161560685760405163f92ee8a960e01b815260040160405180910390fd5b80546001600160401b039081161460c65780546001600160401b0319166001600160401b0390811782556040519081527fc7f505b2f371ae2175ee4913f4499e1f2633a7b5936321eed1cdaeb6115181d29060200160405180910390a15b50565b61323f806100d65f395ff3fe608060405234801561000f575f5ffd5b50600436106101db575f3560e01c80638129fc1c11610109578063b4bc12de1161009e578063e6a69ab81161006e578063e6a69ab8146104dc578063f1af9b04146104e7578063f2fde38b146104fc578063f4a3db1b1461050f575f5ffd5b8063b4bc12de14610459578063bf92857c14610468578063d1946dbc146104a8578063e2e1ca2b146104bd575f5ffd5b80639f7f41bb116100d95780639f7f41bb146103d1578063a415bcad146103fb578063b1fa847e1461040e578063b3596f0714610421575f5ffd5b80638129fc1c1461033f5780638671d23b1461034757806387dd56bc1461035a5780638da5cb5b14610397575f5ffd5b80635a3b74b91161017f5780636ca5d9721161014f5780636ca5d972146102da578063715018a614610304578063717437a31461030c57806379751e1b1461031f575f5ffd5b80635a3b74b914610280578063617ba0371461029557806369328dec146102a85780636bbe56cf146102bb575f5ffd5b8063249d39e9116101ba578063249d39e914610253578063311d5c621461025c57806348ddab6414610264578063573ade811461026d575f5ffd5b8062a718a9146101df57806307e18d911461020c5780631f655b6914610229575b5f5ffd5b6101f26101ed3660046129b5565b6105ff565b604080519283526020830191909152015b60405180910390f35b61021b670d2f13f7789f000081565b604051908152602001610203565b61021b610237366004612a13565b600460209081525f928352604080842090915290825290205481565b61021b61271081565b61021b600881565b61021b61138881565b61021b61027b366004612a44565b61088e565b61029361028e366004612a87565b610ab2565b005b6102936102a3366004612acd565b610bf0565b61021b6102b6366004612b0c565b610d96565b61021b6102c9366004612b45565b60026020525f908152604090205481565b61021b6102e8366004612a13565b600560209081525f928352604080842090915290825290205481565b610293611000565b61029361031a366004612b7b565b611013565b61033261032d366004612b45565b6113d7565b6040516102039190612c21565b610293611513565b610293610355366004612b0c565b61160b565b610387610368366004612a13565b600760209081525f928352604080842090915290825290205460ff1681565b6040519015158152602001610203565b7f9016d09d72d40fdae2fd8ceac6b6234c7706214fd39c1cd1e609a0528c199300546040516001600160a01b039091168152602001610203565b61021b6103df366004612a13565b600660209081525f928352604080842090915290825290205481565b610293610409366004612c91565b611689565b61029361041c366004612ce4565b611a09565b61021b61042f366004612b45565b6001600160a01b03165f90815260016020526040902054600160701b90046001600160801b031690565b61021b670de0b6b3a764000081565b61047b610476366004612b45565b611b11565b604080519687526020870195909552938501929092526060840152608083015260a082015260c001610203565b6104b0611db9565b6040516102039190612d0c565b61021b6104cb366004612b45565b60036020525f908152604090205481565b61021b6301e1338081565b6104ef611e18565b6040516102039190612d7a565b61029361050a366004612b45565b612150565b61059961051d366004612b45565b60016020525f908152604090205460ff80821691610100810482169162010000820481169161ffff63010000008204811692650100000000008304821692600160381b8104831692600160481b8204811692600160581b830490911691600160681b8104909116906001600160801b03600160701b909104168a565b604080519a15158b5298151560208b01529615159789019790975261ffff9485166060890152928416608088015290831660a0870152821660c08601521660e084015260ff9091166101008301526001600160801b031661012082015261014001610203565b6001600160a01b0385165f90815260016020526040812054819060ff16801561063f57506001600160a01b0386165f9081526001602052604090205460ff165b6106645760405162461bcd60e51b815260040161065b90612f06565b60405180910390fd5b6001600160a01b0387165f9081526001602052604090205462010000900460ff166106c85760405162461bcd60e51b8152602060048201526014602482015273185cdcd95d081b9bdd0818dbdb1b185d195c985b60621b604482015260640161065b565b6001600160a01b038086165f908152600760209081526040808320938b168352929052205460ff16156107355760405162461bcd60e51b8152602060048201526015602482015274636f6c6c61746572616c206e6f742061637469766560581b604482015260640161065b565b5f84116107545760405162461bcd60e51b815260040161065b90612f2d565b5f5f61075f87611b11565b95505050509250505f8211801561077d5750670de0b6b3a764000081105b6107ba5760405162461bcd60e51b815260206004820152600e60248201526d4846206e6f742062656c6f77203160901b604482015260640161065b565b6107c4878961218d565b6001600160a01b038088165f908152600560209081526040808320938c1683529290522054806108295760405162461bcd60e51b815260206004820152601060248201526f1b9bc81919589d081a5b88185cdcd95d60821b604482015260640161065b565b5f670d2f13f7789f000083106108575761271061084861138884612f66565b6108529190612f7d565b610859565b815b90505f818911610869578861086b565b815b905061087b8c8c8c84878d612253565b9650965050505050509550959350505050565b6001600160a01b0384165f9081526001602052604081205460ff166108c55760405162461bcd60e51b815260040161065b90612f06565b6108cf828661218d565b6001600160a01b038083165f908152600560209081526040808320938916835292905220548061092b5760405162461bcd60e51b81526020600482015260076024820152661b9bc81919589d60ca1b604482015260640161065b565b5f5f1986148061093a57508186115b6109445785610946565b815b6040516323b872dd60e01b8152336004820152306024820152604481018290529091506001600160a01b038816906323b872dd906064016020604051808303815f875af1158015610999573d5f5f3e3d5ffd5b505050506040513d601f19601f820116820180604052508101906109bd9190612f9c565b6109d95760405162461bcd60e51b815260040161065b90612fb7565b6109e38183612fe0565b6001600160a01b038086165f908152600560209081526040808320938c168352928152828220939093556003909252902054811115610a22575f610a45565b6001600160a01b0387165f90815260036020526040902054610a45908290612fe0565b6001600160a01b038089165f818152600360205260408082209490945592513393928816927fa534c8dbe71f871f9f3530e97a74601fea17b426cae02e1c5aee42c96c78405191610aa0918782521515602082015260400190565b60405180910390a49695505050505050565b6001600160a01b0382165f9081526001602052604090205460ff16610ae95760405162461bcd60e51b815260040161065b90612f06565b335f9081526007602090815260408083206001600160a01b03861684529091529020805460ff1916821517905580610bb8575f5f610b2633611b11565b9550505050925050815f1480610b445750670de0b6b3a76400008110155b610b7d5760405162461bcd60e51b815260206004820152600a602482015269484620746f6f206c6f7760b01b604482015260640161065b565b60405133906001600160a01b038616907f44c58d81365b66dd4b1a7f36c25aa97b8c71c361ee4937adc1a00000227db5dd905f90a350505050565b60405133906001600160a01b038416907e058a56ea94653cdf4f152d227ace22d4c00ad99e2a43f58cb7d9e3feb295f2905f90a35050565b6001600160a01b0384165f9081526001602052604090205460ff16610c275760405162461bcd60e51b815260040161065b90612f06565b5f8311610c465760405162461bcd60e51b815260040161065b90612f2d565b6040516323b872dd60e01b8152336004820152306024820152604481018490526001600160a01b038516906323b872dd906064016020604051808303815f875af1158015610c96573d5f5f3e3d5ffd5b505050506040513d601f19601f82011682018060405250810190610cba9190612f9c565b610cd65760405162461bcd60e51b815260040161065b90612fb7565b6001600160a01b038083165f90815260046020908152604080832093881683529290529081208054859290610d0c908490612ff3565b90915550506001600160a01b0384165f9081526002602052604081208054859290610d38908490612ff3565b9091555050604080513381526020810185905261ffff83168183015290516001600160a01b0384811692908716917f2b627736bca15cd5381dcf80b0bf11fd197d01a037c52b927a881a10fb73ba619181900360600190a350505050565b6001600160a01b0383165f9081526001602052604081205460ff16610dcd5760405162461bcd60e51b815260040161065b90612f06565b335f9081526004602090815260408083206001600160a01b0388168452909152812054905f198514610dff5784610e01565b815b90505f81118015610e125750818111155b610e4f5760405162461bcd60e51b815260206004820152600e60248201526d1a5b9d985b1a5908185b5bdd5b9d60921b604482015260640161065b565b610e598183612fe0565b335f9081526004602090815260408083206001600160a01b038b168452825280832093909355600290529081208054839290610e96908490612fe0565b909155505f905080610ea733611b11565b9550505050925050815f1480610ec55750670de0b6b3a76400008110155b610f115760405162461bcd60e51b815260206004820152601960248201527f484620746f6f206c6f7720616674657220776974686472617700000000000000604482015260640161065b565b60405163a9059cbb60e01b81526001600160a01b0387811660048301526024820185905289169063a9059cbb906044016020604051808303815f875af1158015610f5d573d5f5f3e3d5ffd5b505050506040513d601f19601f82011682018060405250810190610f819190612f9c565b610f9d5760405162461bcd60e51b815260040161065b90612fb7565b856001600160a01b0316336001600160a01b0316896001600160a01b03167f3115d1449a7b732c986cba18244e897a450f61e1bb8d589cd2e69e6c8924f9f786604051610fec91815260200190565b60405180910390a450909695505050505050565b61100861276d565b6110115f6127c8565b565b61101b61276d565b6001600160a01b0389165f9081526001602052604090205460ff16156110795760405162461bcd60e51b8152602060048201526013602482015272185b1c9958591e481a5b9a5d1a585b1a5e9959606a1b604482015260640161065b565b8561ffff168561ffff1610156110c35760405162461bcd60e51b815260206004820152600f60248201526e3a343932b9b437b632101e10363a3b60891b604482015260640161065b565b5f816001600160801b03161161110c5760405162461bcd60e51b815260206004820152600e60248201526d1c1c9a58d9481c995c5d5a5c995960921b604482015260640161065b565b604051806101400160405280600115158152602001891515815260200188151581526020018761ffff1681526020018661ffff1681526020018561ffff1681526020018461ffff1681526020018361ffff1681526020018a6001600160a01b031663313ce5676040518163ffffffff1660e01b8152600401602060405180830381865afa15801561119f573d5f5f3e3d5ffd5b505050506040513d601f19601f820116820180604052508101906111c39190613006565b60ff168152602001826001600160801b031681525060015f8b6001600160a01b03166001600160a01b031681526020019081526020015f205f820151815f015f6101000a81548160ff0219169083151502179055506020820151815f0160016101000a81548160ff0219169083151502179055506040820151815f0160026101000a81548160ff0219169083151502179055506060820151815f0160036101000a81548161ffff021916908361ffff1602179055506080820151815f0160056101000a81548161ffff021916908361ffff16021790555060a0820151815f0160076101000a81548161ffff021916908361ffff16021790555060c0820151815f0160096101000a81548161ffff021916908361ffff16021790555060e0820151815f01600b6101000a81548161ffff021916908361ffff160217905550610100820151815f01600d6101000a81548160ff021916908360ff160217905550610120820151815f01600e6101000a8154816001600160801b0302191690836001600160801b031602179055509050505f89908060018154018082558091505060019003905f5260205f20015f9091909190916101000a8154816001600160a01b0302191690836001600160a01b03160217905550886001600160a01b03167f0499d871c77da24e23f15a1c0c61d9741a93909db53cb6eb3b8575ab6a9179fe60405160405180910390a2505050505050505050565b5f5460609067ffffffffffffffff8111156113f4576113f4613026565b60405190808252806020026020018201604052801561144457816020015b604080516080810182525f8082526020808301829052928201819052606082015282525f199092019101816114125790505b5090505f5b5f5481101561150d575f5f82815481106114655761146561303a565b5f918252602080832090910154604080516080810182526001600160a01b039283168082529289168552600484528185208386528452938190205492840192909252925081016114b58684612838565b81526001600160a01b038087165f90815260076020908152604080832093871683529281529190205460ff161591015283518490849081106114f9576114f961303a565b602090810291909101015250600101611449565b50919050565b5f61151c61290e565b805490915060ff600160401b820416159067ffffffffffffffff165f811580156115435750825b90505f8267ffffffffffffffff16600114801561155f5750303b155b90508115801561156d575080155b1561158b5760405163f92ee8a960e01b815260040160405180910390fd5b845467ffffffffffffffff1916600117855583156115b557845460ff60401b1916600160401b1785555b6115be33612936565b831561160457845460ff60401b19168555604051600181527fc7f505b2f371ae2175ee4913f4499e1f2633a7b5936321eed1cdaeb6115181d29060200160405180910390a15b5050505050565b61161361276d565b60405163a9059cbb60e01b81526001600160a01b0382811660048301526024820184905284169063a9059cbb906044016020604051808303815f875af115801561165f573d5f5f3e3d5ffd5b505050506040513d601f19601f820116820180604052508101906116839190612f9c565b50505050565b6001600160a01b0385165f908152600160205260409020805460ff166116c15760405162461bcd60e51b815260040161065b90612f06565b8054610100900460ff1661170c5760405162461bcd60e51b8152602060048201526012602482015271189bdc9c9bddda5b99c8191a5cd8589b195960721b604482015260640161065b565b5f851161172b5760405162461bcd60e51b815260040161065b90612f2d565b6001600160a01b03821633146117835760405162461bcd60e51b815260206004820152601d60248201527f6372656469742064656c65676174696f6e20756e737570706f72746564000000604482015260640161065b565b6040516370a0823160e01b815230600482015285906001600160a01b038816906370a0823190602401602060405180830381865afa1580156117c7573d5f5f3e3d5ffd5b505050506040513d601f19601f820116820180604052508101906117eb919061304e565b10156118325760405162461bcd60e51b8152602060048201526016602482015275696e73756666696369656e74206c697175696469747960501b604482015260640161065b565b61183c338761218d565b335f9081526005602090815260408083206001600160a01b038a1684529091528120805487929061186e908490612ff3565b90915550506001600160a01b0386165f908152600360205260408120805487929061189a908490612ff3565b909155505f905080806118ac33611b11565b50945050509250925080836118c19190612f66565b6118cd61271084612f66565b11156119095760405162461bcd60e51b815260206004820152600b60248201526a32bc31b2b2b23990262a2b60a91b604482015260640161065b565b60405163a9059cbb60e01b8152336004820152602481018990526001600160a01b038a169063a9059cbb906044016020604051808303815f875af1158015611953573d5f5f3e3d5ffd5b505050506040513d601f19601f820116820180604052508101906119779190612f9c565b6119935760405162461bcd60e51b815260040161065b90612fb7565b835460408051338152602081018b90528082018a905261ffff600160581b909304831660608201529188166080830152516001600160a01b0387811692908c16917fc6a898309e823ee50bac64e45ca8adba6690e99e7841c45d754e2a38e9019d9b9181900360a00190a3505050505050505050565b611a1161276d565b6001600160a01b0382165f9081526001602052604090205460ff16611a485760405162461bcd60e51b815260040161065b90612f06565b5f816001600160801b031611611a915760405162461bcd60e51b815260206004820152600e60248201526d1c1c9a58d9481c995c5d5a5c995960921b604482015260640161065b565b6001600160a01b0382165f8181526001602090815260409182902080546fffffffffffffffffffffffffffffffff60701b1916600160701b6001600160801b0387169081029190911790915591519182527f0d86730737b142fc160892fa8a0f2db687a92a0e294d1ad70624cf5acef03b84910160405180910390a25050565b5f80808080808080805b5f54811015611d14575f5f8281548110611b3757611b3761303a565b905f5260205f20015f9054906101000a90046001600160a01b031690505f60015f836001600160a01b03166001600160a01b031681526020019081526020015f2090505f60045f8e6001600160a01b03166001600160a01b031681526020019081526020015f205f846001600160a01b03166001600160a01b031681526020019081526020015f205490505f81118015611bd85750815462010000900460ff165b8015611c0957506001600160a01b03808e165f9081526007602090815260408083209387168352929052205460ff16155b15611ca75781545f90611c2790600160681b900460ff16600a613148565b8354611c4390600160701b90046001600160801b031684612f66565b611c4d9190612f7d565b9050611c59818e612ff3565b8354909d50611c73906301000000900461ffff1682612f66565b611c7d9088612ff3565b8354909750611c999065010000000000900461ffff1682612f66565b611ca39087612ff3565b9550505b5f611cb28e85612838565b90508015611d04578254611cd190600160681b900460ff16600a613148565b8354611ced90600160701b90046001600160801b031683612f66565b611cf79190612f7d565b611d01908d612ff3565b9b505b505060019092019150611b1b9050565b508715611d3457611d258883612f7d565b9350611d318882612f7d565b94505b5f612710611d42868b612f66565b611d4c9190612f7d565b9050878111611d5b575f611d65565b611d658882612fe0565b9650875f03611d77575f199350611dad565b611d8361271089612f66565b670de0b6b3a7640000611d96888c612f66565b611da09190612f66565b611daa9190612f7d565b93505b50505091939550919395565b60605f805480602002602001604051908101604052809291908181526020018280548015611e0e57602002820191905f5260205f20905b81546001600160a01b03168152600190910190602001808311611df0575b5050505050905090565b5f5460609067ffffffffffffffff811115611e3557611e35613026565b604051908082528060200260200182016040528015611eda57816020015b604080516101e0810182525f8082526060602080840182905293830181905282018190526080820181905260a0820181905260c0820181905260e08201819052610100820181905261012082018190526101408201819052610160820181905261018082018190526101a082018190526101c082015282525f19909201910181611e535790505b5090505f5b5f5481101561214c575f5f8281548110611efb57611efb61303a565b5f9182526020808320909101546001600160a01b031680835260018252604080842081516101e08101835283815282516306fdde0360e01b815292519396509094909384019286926306fdde039260048083019391928290030181865afa158015611f68573d5f5f3e3d5ffd5b505050506040513d5f823e601f3d908101601f19168201604052611f8f9190810190613156565b8152602001836001600160a01b03166395d89b416040518163ffffffff1660e01b81526004015f60405180830381865afa158015611fcf573d5f5f3e3d5ffd5b505050506040513d5f823e601f3d908101601f19168201604052611ff69190810190613156565b81528254600160681b810460ff90811660208085019190915261010080840483161515604080870191909152620100008504909316151560608601526301000000840461ffff9081166080870152650100000000008504811660a0870152600160381b8504811660c0870152600160481b8504811660e0870152600160581b85041690850152600160701b9092046001600160801b03166101208401526001600160a01b0386165f818152600284528281205461014086015281815260039093529181902054610160840152516370a0823160e01b8152306004820152610180909201916370a0823190602401602060405180830381865afa1580156120fe573d5f5f3e3d5ffd5b505050506040513d601f19601f82011682018060405250810190612122919061304e565b8152508484815181106121375761213761303a565b60209081029190910101525050600101611edf565b5090565b61215861276d565b6001600160a01b03811661218157604051631e4fbdf760e01b81525f600482015260240161065b565b61218a816127c8565b50565b5f6121988383612838565b6001600160a01b038085165f9081526005602090815260408083209387168352929052205490915080821115612226576001600160a01b038085165f9081526005602090815260408083209387168352929052208290556121f98183612fe0565b6001600160a01b0384165f9081526003602052604081208054909190612220908490612ff3565b90915550505b50506001600160a01b039182165f9081526006602090815260408083209390941682529190915220429055565b6001600160a01b038681165f9081526001602052604080822092881682528120805491928392909190839061229390600160681b900460ff16600a613148565b82546122af90600160701b90046001600160801b03168a612f66565b6122b99190612f7d565b83549091505f906122dd9061271090600160701b90046001600160801b0316612f66565b84546122f490600160681b900460ff16600a613148565b855461230d90600160381b900461ffff16612710612ff3565b6123179085612f66565b6123219190612f66565b61232b9190612f7d565b90505f60045f8c6001600160a01b03166001600160a01b031681526020019081526020015f205f8e6001600160a01b03166001600160a01b031681526020019081526020015f205490505f81116123bd5760405162461bcd60e51b81526020600482015260166024820152751b9bc818dbdb1b185d195c985b081a5b88185cdcd95d60521b604482015260640161065b565b8082111561247d57845490915081905f906123e390600160681b900460ff16600a613148565b86546123ff90600160701b90046001600160801b031685612f66565b6124099190612f7d565b85548754919250600160701b90046001600160801b03169061243890600160381b900461ffff16612710612ff3565b6124429190612f66565b855461245990600160681b900460ff16600a613148565b61246561271084612f66565b61246f9190612f66565b6124799190612f7d565b9a50505b6040516323b872dd60e01b8152336004820152306024820152604481018b90526001600160a01b038d16906323b872dd906064016020604051808303815f875af11580156124cd573d5f5f3e3d5ffd5b505050506040513d601f19601f820116820180604052508101906124f19190612f9c565b61250d5760405162461bcd60e51b815260040161065b90612fb7565b6125178a8a612fe0565b60055f8d6001600160a01b03166001600160a01b031681526020019081526020015f205f8e6001600160a01b03166001600160a01b031681526020019081526020015f20819055508960035f8e6001600160a01b03166001600160a01b031681526020019081526020015f20541015612590575f6125b3565b6001600160a01b038c165f908152600360205260409020546125b3908b90612fe0565b6001600160a01b038d165f908152600360205260409020556125d58282612fe0565b60045f8d6001600160a01b03166001600160a01b031681526020019081526020015f205f8f6001600160a01b03166001600160a01b031681526020019081526020015f20819055508160025f8f6001600160a01b03166001600160a01b031681526020019081526020015f205f82825461264f9190612fe0565b909155505060405163a9059cbb60e01b8152336004820152602481018390526001600160a01b038e169063a9059cbb906044016020604051808303815f875af115801561269e573d5f5f3e3d5ffd5b505050506040513d601f19601f820116820180604052508101906126c29190612f9c565b6126de5760405162461bcd60e51b815260040161065b90612fb7565b8a6001600160a01b03168c6001600160a01b03168e6001600160a01b03167fe413a321e8681d831f4dbccbca790d2952b56f977908e45be37335533e0052868d86338e604051612752949392919093845260208401929092526001600160a01b031660408301521515606082015260800190565b60405180910390a450979b979a509698505050505050505050565b3361279f7f9016d09d72d40fdae2fd8ceac6b6234c7706214fd39c1cd1e609a0528c199300546001600160a01b031690565b6001600160a01b0316146110115760405163118cdaa760e01b815233600482015260240161065b565b7f9016d09d72d40fdae2fd8ceac6b6234c7706214fd39c1cd1e609a0528c19930080546001600160a01b031981166001600160a01b03848116918217845560405192169182907f8be0079c531659141344cd1fd0a4f28419497f9722a3daafe3b4186f6b6457e0905f90a3505050565b6001600160a01b038083165f90815260056020908152604080832093851683529290529081205480820361286f575f915050612908565b6001600160a01b038085165f9081526006602090815260408083209387168352929052908120546128a09042612fe0565b90505f6128b36301e13380612710612f66565b6001600160a01b0386165f9081526001602052604090205483906128e290600160581b900461ffff1686612f66565b6128ec9190612f66565b6128f69190612f7d565b90506129028184612ff3565b93505050505b92915050565b5f807ff0c57e16840df040f15088dc2f81fe391c3923bec73e23a9662efc9c229c6a00612908565b61293e612947565b61218a8161296c565b61294f612974565b61101157604051631afcd79f60e31b815260040160405180910390fd5b612158612947565b5f61297d61290e565b54600160401b900460ff16919050565b80356001600160a01b03811681146129a3575f5ffd5b919050565b801515811461218a575f5ffd5b5f5f5f5f5f60a086880312156129c9575f5ffd5b6129d28661298d565b94506129e06020870161298d565b93506129ee6040870161298d565b9250606086013591506080860135612a05816129a8565b809150509295509295909350565b5f5f60408385031215612a24575f5ffd5b612a2d8361298d565b9150612a3b6020840161298d565b90509250929050565b5f5f5f5f60808587031215612a57575f5ffd5b612a608561298d565b93506020850135925060408501359150612a7c6060860161298d565b905092959194509250565b5f5f60408385031215612a98575f5ffd5b612aa18361298d565b91506020830135612ab1816129a8565b809150509250929050565b803561ffff811681146129a3575f5ffd5b5f5f5f5f60808587031215612ae0575f5ffd5b612ae98561298d565b935060208501359250612afe6040860161298d565b9150612a7c60608601612abc565b5f5f5f60608486031215612b1e575f5ffd5b612b278461298d565b925060208401359150612b3c6040850161298d565b90509250925092565b5f60208284031215612b55575f5ffd5b612b5e8261298d565b9392505050565b80356001600160801b03811681146129a3575f5ffd5b5f5f5f5f5f5f5f5f5f6101208a8c031215612b94575f5ffd5b612b9d8a61298d565b985060208a0135612bad816129a8565b975060408a0135612bbd816129a8565b9650612bcb60608b01612abc565b9550612bd960808b01612abc565b9450612be760a08b01612abc565b9350612bf560c08b01612abc565b9250612c0360e08b01612abc565b9150612c126101008b01612b65565b90509295985092959850929598565b602080825282518282018190525f918401906040840190835b81811015612c8657835180516001600160a01b03168452602080820151818601526040808301519086015260609182015115159185019190915290930192608090920191600101612c3a565b509095945050505050565b5f5f5f5f5f60a08688031215612ca5575f5ffd5b612cae8661298d565b94506020860135935060408601359250612cca60608701612abc565b9150612cd86080870161298d565b90509295509295909350565b5f5f60408385031215612cf5575f5ffd5b612cfe8361298d565b9150612a3b60208401612b65565b602080825282518282018190525f918401906040840190835b81811015612c865783516001600160a01b0316835260209384019390920191600101612d25565b5f81518084528060208401602086015e5f602082860101526020601f19601f83011685010191505092915050565b5f602082016020835280845180835260408501915060408160051b8601019250602086015f5b82811015612efa57868503603f19018452815180516001600160a01b0316865260208101516101e06020880152612ddb6101e0880182612d4c565b905060408201518782036040890152612df48282612d4c565b9150506060820151612e0b606089018260ff169052565b506080820151612e1f608089018215159052565b5060a0820151612e3360a089018215159052565b5060c0820151612e4960c089018261ffff169052565b5060e0820151612e5f60e089018261ffff169052565b50610100820151612e7761010089018261ffff169052565b50610120820151612e8f61012089018261ffff169052565b50610140820151612ea761014089018261ffff169052565b50610160820151612ec46101608901826001600160801b03169052565b5061018082810151908801526101a080830151908801526101c09182015191909601526020938401939190910190600101612da0565b50929695505050505050565b6020808252600d908201526c1d5b9adb9bdddb88185cdcd95d609a1b604082015260600190565b6020808252600b908201526a1e995c9bc8185b5bdd5b9d60aa1b604082015260600190565b634e487b7160e01b5f52601160045260245ffd5b808202811582820484141761290857612908612f52565b5f82612f9757634e487b7160e01b5f52601260045260245ffd5b500490565b5f60208284031215612fac575f5ffd5b8151612b5e816129a8565b6020808252600f908201526e1d1c985b9cd9995c8819985a5b1959608a1b604082015260600190565b8181038181111561290857612908612f52565b8082018082111561290857612908612f52565b5f60208284031215613016575f5ffd5b815160ff81168114612b5e575f5ffd5b634e487b7160e01b5f52604160045260245ffd5b634e487b7160e01b5f52603260045260245ffd5b5f6020828403121561305e575f5ffd5b5051919050565b6001815b60018411156130a05780850481111561308457613084612f52565b600184161561309257908102905b60019390931c928002613069565b935093915050565b5f826130b657506001612908565b816130c257505f612908565b81600181146130d857600281146130e2576130fe565b6001915050612908565b60ff8411156130f3576130f3612f52565b50506001821b612908565b5060208310610133831016604e8410600b8410161715613121575081810a612908565b61312d5f198484613065565b805f190482111561314057613140612f52565b029392505050565b5f612b5e60ff8416836130a8565b5f60208284031215613166575f5ffd5b815167ffffffffffffffff81111561317c575f5ffd5b8201601f8101841361318c575f5ffd5b805167ffffffffffffffff8111156131a6576131a6613026565b604051601f8201601f19908116603f0116810167ffffffffffffffff811182821017156131d5576131d5613026565b6040528181528282016020018610156131ec575f5ffd5b8160208401602083015e5f9181016020019190915294935050505056fea2646970667358221220fe2a40c2e4a147ef132225eed1119d91760e68754d64f85b3b1abe05e878410964736f6c634300081c0033",
  "linkReferences": {},
  "deployedLinkReferences": {},
  "immutableReferences": {},
  "inputSourceName": "project/contracts/RWAPool.sol",
  "buildInfoId": "solc-0_8_28-015daee8bc5f051b025d8349e82012603375d6ee"
}